{
	"concat.sol": {
		"concat": {
			"abi": [
				{
					"inputs": [
						{
							"internalType": "string",
							"name": "_a",
							"type": "string"
						},
						{
							"internalType": "string",
							"name": "_b",
							"type": "string"
						}
					],
					"name": "concat1",
					"outputs": [
						{
							"internalType": "string",
							"name": "",
							"type": "string"
						}
					],
					"stateMutability": "pure",
					"type": "function"
				},
				{
					"inputs": [
						{
							"internalType": "string",
							"name": "_a",
							"type": "string"
						},
						{
							"internalType": "string",
							"name": "_b",
							"type": "string"
						}
					],
					"name": "concat2",
					"outputs": [
						{
							"internalType": "string",
							"name": "",
							"type": "string"
						}
					],
					"stateMutability": "pure",
					"type": "function"
				},
				{
					"inputs": [
						{
							"internalType": "string",
							"name": "_name",
							"type": "string"
						},
						{
							"internalType": "string",
							"name": "_age",
							"type": "string"
						}
					],
					"name": "concat3",
					"outputs": [
						{
							"internalType": "string",
							"name": "",
							"type": "string"
						}
					],
					"stateMutability": "pure",
					"type": "function"
				}
			],
			"devdoc": {
				"kind": "dev",
				"methods": {},
				"version": 1
			},
			"evm": {
				"assembly": "    /* \"concat.sol\":60:548  contract concat {... */\n  mstore(0x40, 0x80)\n  callvalue\n  dup1\n  iszero\n  tag_1\n  jumpi\n  0x00\n  dup1\n  revert\ntag_1:\n  pop\n  dataSize(sub_0)\n  dup1\n  dataOffset(sub_0)\n  0x00\n  codecopy\n  0x00\n  return\nstop\n\nsub_0: assembly {\n        /* \"concat.sol\":60:548  contract concat {... */\n      mstore(0x40, 0x80)\n      callvalue\n      dup1\n      iszero\n      tag_1\n      jumpi\n      0x00\n      dup1\n      revert\n    tag_1:\n      pop\n      jumpi(tag_2, lt(calldatasize, 0x04))\n      shr(0xe0, calldataload(0x00))\n      dup1\n      0x062b7366\n      eq\n      tag_3\n      jumpi\n      dup1\n      0x252a1437\n      eq\n      tag_4\n      jumpi\n      dup1\n      0x3d9799b4\n      eq\n      tag_5\n      jumpi\n    tag_2:\n      0x00\n      dup1\n      revert\n        /* \"concat.sol\":371:546  function concat3(string memory _name, string memory _age) public pure returns(string memory) {... */\n    tag_3:\n      tag_6\n      0x04\n      dup1\n      calldatasize\n      sub\n      dup2\n      add\n      swap1\n      tag_7\n      swap2\n      swap1\n      tag_8\n      jump\t// in\n    tag_7:\n      tag_9\n      jump\t// in\n    tag_6:\n      mload(0x40)\n      tag_10\n      swap2\n      swap1\n      tag_11\n      jump\t// in\n    tag_10:\n      mload(0x40)\n      dup1\n      swap2\n      sub\n      swap1\n      return\n        /* \"concat.sol\":221:365  function concat2(string memory _a, string memory _b) public pure returns(string memory) {... */\n    tag_4:\n      tag_12\n      0x04\n      dup1\n      calldatasize\n      sub\n      dup2\n      add\n      swap1\n      tag_13\n      swap2\n      swap1\n      tag_8\n      jump\t// in\n    tag_13:\n      tag_14\n      jump\t// in\n    tag_12:\n      mload(0x40)\n      tag_15\n      swap2\n      swap1\n      tag_11\n      jump\t// in\n    tag_15:\n      mload(0x40)\n      dup1\n      swap2\n      sub\n      swap1\n      return\n        /* \"concat.sol\":82:215  function concat1(string memory _a, string memory _b) public pure returns(string memory) {... */\n    tag_5:\n      tag_16\n      0x04\n      dup1\n      calldatasize\n      sub\n      dup2\n      add\n      swap1\n      tag_17\n      swap2\n      swap1\n      tag_8\n      jump\t// in\n    tag_17:\n      tag_18\n      jump\t// in\n    tag_16:\n      mload(0x40)\n      tag_19\n      swap2\n      swap1\n      tag_11\n      jump\t// in\n    tag_19:\n      mload(0x40)\n      dup1\n      swap2\n      sub\n      swap1\n      return\n        /* \"concat.sol\":371:546  function concat3(string memory _name, string memory _age) public pure returns(string memory) {... */\n    tag_9:\n        /* \"concat.sol\":449:462  string memory */\n      0x60\n        /* \"concat.sol\":516:521  _name */\n      dup3\n        /* \"concat.sol\":533:537  _age */\n      dup3\n        /* \"concat.sol\":488:538  abi.encodePacked(\"name : \", _name, \"age : \", _age) */\n      add(0x20, mload(0x40))\n      tag_21\n      swap3\n      swap2\n      swap1\n      tag_22\n      jump\t// in\n    tag_21:\n      mload(0x40)\n      0x20\n      dup2\n      dup4\n      sub\n      sub\n      dup2\n      mstore\n      swap1\n      0x40\n      mstore\n        /* \"concat.sol\":474:539  return string(abi.encodePacked(\"name : \", _name, \"age : \", _age)) */\n      swap1\n      pop\n        /* \"concat.sol\":371:546  function concat3(string memory _name, string memory _age) public pure returns(string memory) {... */\n      swap3\n      swap2\n      pop\n      pop\n      jump\t// out\n        /* \"concat.sol\":221:365  function concat2(string memory _a, string memory _b) public pure returns(string memory) {... */\n    tag_14:\n        /* \"concat.sol\":294:307  string memory */\n      0x60\n        /* \"concat.sol\":350:352  _a */\n      dup3\n        /* \"concat.sol\":354:356  _b */\n      dup3\n        /* \"concat.sol\":333:357  abi.encodePacked(_a, _b) */\n      add(0x20, mload(0x40))\n      tag_24\n      swap3\n      swap2\n      swap1\n      tag_25\n      jump\t// in\n    tag_24:\n      mload(0x40)\n      0x20\n      dup2\n      dup4\n      sub\n      sub\n      dup2\n      mstore\n      swap1\n      0x40\n      mstore\n        /* \"concat.sol\":319:358  return string(abi.encodePacked(_a, _b)) */\n      swap1\n      pop\n        /* \"concat.sol\":221:365  function concat2(string memory _a, string memory _b) public pure returns(string memory) {... */\n      swap3\n      swap2\n      pop\n      pop\n      jump\t// out\n        /* \"concat.sol\":82:215  function concat1(string memory _a, string memory _b) public pure returns(string memory) {... */\n    tag_18:\n        /* \"concat.sol\":155:168  string memory */\n      0x60\n        /* \"concat.sol\":201:203  _a */\n      dup3\n        /* \"concat.sol\":205:207  _b */\n      dup3\n        /* \"concat.sol\":187:208  string.concat(_a, _b) */\n      add(0x20, mload(0x40))\n      tag_27\n      swap3\n      swap2\n      swap1\n      tag_25\n      jump\t// in\n    tag_27:\n      mload(0x40)\n      0x20\n      dup2\n      dup4\n      sub\n      sub\n      dup2\n      mstore\n      swap1\n      0x40\n      mstore\n        /* \"concat.sol\":180:208  return string.concat(_a, _b) */\n      swap1\n      pop\n        /* \"concat.sol\":82:215  function concat1(string memory _a, string memory _b) public pure returns(string memory) {... */\n      swap3\n      swap2\n      pop\n      pop\n      jump\t// out\n        /* \"#utility.yul\":7:82   */\n    tag_28:\n        /* \"#utility.yul\":40:46   */\n      0x00\n        /* \"#utility.yul\":73:75   */\n      0x40\n        /* \"#utility.yul\":67:76   */\n      mload\n        /* \"#utility.yul\":57:76   */\n      swap1\n      pop\n        /* \"#utility.yul\":7:82   */\n      swap1\n      jump\t// out\n        /* \"#utility.yul\":88:205   */\n    tag_29:\n        /* \"#utility.yul\":197:198   */\n      0x00\n        /* \"#utility.yul\":194:195   */\n      dup1\n        /* \"#utility.yul\":187:199   */\n      revert\n        /* \"#utility.yul\":211:328   */\n    tag_30:\n        /* \"#utility.yul\":320:321   */\n      0x00\n        /* \"#utility.yul\":317:318   */\n      dup1\n        /* \"#utility.yul\":310:322   */\n      revert\n        /* \"#utility.yul\":334:451   */\n    tag_31:\n        /* \"#utility.yul\":443:444   */\n      0x00\n        /* \"#utility.yul\":440:441   */\n      dup1\n        /* \"#utility.yul\":433:445   */\n      revert\n        /* \"#utility.yul\":457:574   */\n    tag_32:\n        /* \"#utility.yul\":566:567   */\n      0x00\n        /* \"#utility.yul\":563:564   */\n      dup1\n        /* \"#utility.yul\":556:568   */\n      revert\n        /* \"#utility.yul\":580:682   */\n    tag_33:\n        /* \"#utility.yul\":621:627   */\n      0x00\n        /* \"#utility.yul\":672:674   */\n      0x1f\n        /* \"#utility.yul\":668:675   */\n      not\n        /* \"#utility.yul\":663:665   */\n      0x1f\n        /* \"#utility.yul\":656:661   */\n      dup4\n        /* \"#utility.yul\":652:666   */\n      add\n        /* \"#utility.yul\":648:676   */\n      and\n        /* \"#utility.yul\":638:676   */\n      swap1\n      pop\n        /* \"#utility.yul\":580:682   */\n      swap2\n      swap1\n      pop\n      jump\t// out\n        /* \"#utility.yul\":688:868   */\n    tag_34:\n        /* \"#utility.yul\":736:813   */\n      0x4e487b7100000000000000000000000000000000000000000000000000000000\n        /* \"#utility.yul\":733:734   */\n      0x00\n        /* \"#utility.yul\":726:814   */\n      mstore\n        /* \"#utility.yul\":833:837   */\n      0x41\n        /* \"#utility.yul\":830:831   */\n      0x04\n        /* \"#utility.yul\":823:838   */\n      mstore\n        /* \"#utility.yul\":857:861   */\n      0x24\n        /* \"#utility.yul\":854:855   */\n      0x00\n        /* \"#utility.yul\":847:862   */\n      revert\n        /* \"#utility.yul\":874:1155   */\n    tag_35:\n        /* \"#utility.yul\":957:984   */\n      tag_60\n        /* \"#utility.yul\":979:983   */\n      dup3\n        /* \"#utility.yul\":957:984   */\n      tag_33\n      jump\t// in\n    tag_60:\n        /* \"#utility.yul\":949:955   */\n      dup2\n        /* \"#utility.yul\":945:985   */\n      add\n        /* \"#utility.yul\":1087:1093   */\n      dup2\n        /* \"#utility.yul\":1075:1085   */\n      dup2\n        /* \"#utility.yul\":1072:1094   */\n      lt\n        /* \"#utility.yul\":1051:1069   */\n      0xffffffffffffffff\n        /* \"#utility.yul\":1039:1049   */\n      dup3\n        /* \"#utility.yul\":1036:1070   */\n      gt\n        /* \"#utility.yul\":1033:1095   */\n      or\n        /* \"#utility.yul\":1030:1118   */\n      iszero\n      tag_61\n      jumpi\n        /* \"#utility.yul\":1098:1116   */\n      tag_62\n      tag_34\n      jump\t// in\n    tag_62:\n        /* \"#utility.yul\":1030:1118   */\n    tag_61:\n        /* \"#utility.yul\":1138:1148   */\n      dup1\n        /* \"#utility.yul\":1134:1136   */\n      0x40\n        /* \"#utility.yul\":1127:1149   */\n      mstore\n        /* \"#utility.yul\":917:1155   */\n      pop\n        /* \"#utility.yul\":874:1155   */\n      pop\n      pop\n      jump\t// out\n        /* \"#utility.yul\":1161:1290   */\n    tag_36:\n        /* \"#utility.yul\":1195:1201   */\n      0x00\n        /* \"#utility.yul\":1222:1242   */\n      tag_64\n      tag_28\n      jump\t// in\n    tag_64:\n        /* \"#utility.yul\":1212:1242   */\n      swap1\n      pop\n        /* \"#utility.yul\":1251:1284   */\n      tag_65\n        /* \"#utility.yul\":1279:1283   */\n      dup3\n        /* \"#utility.yul\":1271:1277   */\n      dup3\n        /* \"#utility.yul\":1251:1284   */\n      tag_35\n      jump\t// in\n    tag_65:\n        /* \"#utility.yul\":1161:1290   */\n      swap2\n      swap1\n      pop\n      jump\t// out\n        /* \"#utility.yul\":1296:1604   */\n    tag_37:\n        /* \"#utility.yul\":1358:1362   */\n      0x00\n        /* \"#utility.yul\":1448:1466   */\n      0xffffffffffffffff\n        /* \"#utility.yul\":1440:1446   */\n      dup3\n        /* \"#utility.yul\":1437:1467   */\n      gt\n        /* \"#utility.yul\":1434:1490   */\n      iszero\n      tag_67\n      jumpi\n        /* \"#utility.yul\":1470:1488   */\n      tag_68\n      tag_34\n      jump\t// in\n    tag_68:\n        /* \"#utility.yul\":1434:1490   */\n    tag_67:\n        /* \"#utility.yul\":1508:1537   */\n      tag_69\n        /* \"#utility.yul\":1530:1536   */\n      dup3\n        /* \"#utility.yul\":1508:1537   */\n      tag_33\n      jump\t// in\n    tag_69:\n        /* \"#utility.yul\":1500:1537   */\n      swap1\n      pop\n        /* \"#utility.yul\":1592:1596   */\n      0x20\n        /* \"#utility.yul\":1586:1590   */\n      dup2\n        /* \"#utility.yul\":1582:1597   */\n      add\n        /* \"#utility.yul\":1574:1597   */\n      swap1\n      pop\n        /* \"#utility.yul\":1296:1604   */\n      swap2\n      swap1\n      pop\n      jump\t// out\n        /* \"#utility.yul\":1610:1756   */\n    tag_38:\n        /* \"#utility.yul\":1707:1713   */\n      dup3\n        /* \"#utility.yul\":1702:1705   */\n      dup2\n        /* \"#utility.yul\":1697:1700   */\n      dup4\n        /* \"#utility.yul\":1684:1714   */\n      calldatacopy\n        /* \"#utility.yul\":1748:1749   */\n      0x00\n        /* \"#utility.yul\":1739:1745   */\n      dup4\n        /* \"#utility.yul\":1734:1737   */\n      dup4\n        /* \"#utility.yul\":1730:1746   */\n      add\n        /* \"#utility.yul\":1723:1750   */\n      mstore\n        /* \"#utility.yul\":1610:1756   */\n      pop\n      pop\n      pop\n      jump\t// out\n        /* \"#utility.yul\":1762:2187   */\n    tag_39:\n        /* \"#utility.yul\":1840:1845   */\n      0x00\n        /* \"#utility.yul\":1865:1931   */\n      tag_72\n        /* \"#utility.yul\":1881:1930   */\n      tag_73\n        /* \"#utility.yul\":1923:1929   */\n      dup5\n        /* \"#utility.yul\":1881:1930   */\n      tag_37\n      jump\t// in\n    tag_73:\n        /* \"#utility.yul\":1865:1931   */\n      tag_36\n      jump\t// in\n    tag_72:\n        /* \"#utility.yul\":1856:1931   */\n      swap1\n      pop\n        /* \"#utility.yul\":1954:1960   */\n      dup3\n        /* \"#utility.yul\":1947:1952   */\n      dup2\n        /* \"#utility.yul\":1940:1961   */\n      mstore\n        /* \"#utility.yul\":1992:1996   */\n      0x20\n        /* \"#utility.yul\":1985:1990   */\n      dup2\n        /* \"#utility.yul\":1981:1997   */\n      add\n        /* \"#utility.yul\":2030:2033   */\n      dup5\n        /* \"#utility.yul\":2021:2027   */\n      dup5\n        /* \"#utility.yul\":2016:2019   */\n      dup5\n        /* \"#utility.yul\":2012:2028   */\n      add\n        /* \"#utility.yul\":2009:2034   */\n      gt\n        /* \"#utility.yul\":2006:2118   */\n      iszero\n      tag_74\n      jumpi\n        /* \"#utility.yul\":2037:2116   */\n      tag_75\n      tag_32\n      jump\t// in\n    tag_75:\n        /* \"#utility.yul\":2006:2118   */\n    tag_74:\n        /* \"#utility.yul\":2127:2181   */\n      tag_76\n        /* \"#utility.yul\":2174:2180   */\n      dup5\n        /* \"#utility.yul\":2169:2172   */\n      dup3\n        /* \"#utility.yul\":2164:2167   */\n      dup6\n        /* \"#utility.yul\":2127:2181   */\n      tag_38\n      jump\t// in\n    tag_76:\n        /* \"#utility.yul\":1846:2187   */\n      pop\n        /* \"#utility.yul\":1762:2187   */\n      swap4\n      swap3\n      pop\n      pop\n      pop\n      jump\t// out\n        /* \"#utility.yul\":2207:2547   */\n    tag_40:\n        /* \"#utility.yul\":2263:2268   */\n      0x00\n        /* \"#utility.yul\":2312:2315   */\n      dup3\n        /* \"#utility.yul\":2305:2309   */\n      0x1f\n        /* \"#utility.yul\":2297:2303   */\n      dup4\n        /* \"#utility.yul\":2293:2310   */\n      add\n        /* \"#utility.yul\":2289:2316   */\n      slt\n        /* \"#utility.yul\":2279:2401   */\n      tag_78\n      jumpi\n        /* \"#utility.yul\":2320:2399   */\n      tag_79\n      tag_31\n      jump\t// in\n    tag_79:\n        /* \"#utility.yul\":2279:2401   */\n    tag_78:\n        /* \"#utility.yul\":2437:2443   */\n      dup2\n        /* \"#utility.yul\":2424:2444   */\n      calldataload\n        /* \"#utility.yul\":2462:2541   */\n      tag_80\n        /* \"#utility.yul\":2537:2540   */\n      dup5\n        /* \"#utility.yul\":2529:2535   */\n      dup3\n        /* \"#utility.yul\":2522:2526   */\n      0x20\n        /* \"#utility.yul\":2514:2520   */\n      dup7\n        /* \"#utility.yul\":2510:2527   */\n      add\n        /* \"#utility.yul\":2462:2541   */\n      tag_39\n      jump\t// in\n    tag_80:\n        /* \"#utility.yul\":2453:2541   */\n      swap2\n      pop\n        /* \"#utility.yul\":2269:2547   */\n      pop\n        /* \"#utility.yul\":2207:2547   */\n      swap3\n      swap2\n      pop\n      pop\n      jump\t// out\n        /* \"#utility.yul\":2553:3387   */\n    tag_8:\n        /* \"#utility.yul\":2641:2647   */\n      0x00\n        /* \"#utility.yul\":2649:2655   */\n      dup1\n        /* \"#utility.yul\":2698:2700   */\n      0x40\n        /* \"#utility.yul\":2686:2695   */\n      dup4\n        /* \"#utility.yul\":2677:2684   */\n      dup6\n        /* \"#utility.yul\":2673:2696   */\n      sub\n        /* \"#utility.yul\":2669:2701   */\n      slt\n        /* \"#utility.yul\":2666:2785   */\n      iszero\n      tag_82\n      jumpi\n        /* \"#utility.yul\":2704:2783   */\n      tag_83\n      tag_29\n      jump\t// in\n    tag_83:\n        /* \"#utility.yul\":2666:2785   */\n    tag_82:\n        /* \"#utility.yul\":2852:2853   */\n      0x00\n        /* \"#utility.yul\":2841:2850   */\n      dup4\n        /* \"#utility.yul\":2837:2854   */\n      add\n        /* \"#utility.yul\":2824:2855   */\n      calldataload\n        /* \"#utility.yul\":2882:2900   */\n      0xffffffffffffffff\n        /* \"#utility.yul\":2874:2880   */\n      dup2\n        /* \"#utility.yul\":2871:2901   */\n      gt\n        /* \"#utility.yul\":2868:2985   */\n      iszero\n      tag_84\n      jumpi\n        /* \"#utility.yul\":2904:2983   */\n      tag_85\n      tag_30\n      jump\t// in\n    tag_85:\n        /* \"#utility.yul\":2868:2985   */\n    tag_84:\n        /* \"#utility.yul\":3009:3072   */\n      tag_86\n        /* \"#utility.yul\":3064:3071   */\n      dup6\n        /* \"#utility.yul\":3055:3061   */\n      dup3\n        /* \"#utility.yul\":3044:3053   */\n      dup7\n        /* \"#utility.yul\":3040:3062   */\n      add\n        /* \"#utility.yul\":3009:3072   */\n      tag_40\n      jump\t// in\n    tag_86:\n        /* \"#utility.yul\":2999:3072   */\n      swap3\n      pop\n        /* \"#utility.yul\":2795:3082   */\n      pop\n        /* \"#utility.yul\":3149:3151   */\n      0x20\n        /* \"#utility.yul\":3138:3147   */\n      dup4\n        /* \"#utility.yul\":3134:3152   */\n      add\n        /* \"#utility.yul\":3121:3153   */\n      calldataload\n        /* \"#utility.yul\":3180:3198   */\n      0xffffffffffffffff\n        /* \"#utility.yul\":3172:3178   */\n      dup2\n        /* \"#utility.yul\":3169:3199   */\n      gt\n        /* \"#utility.yul\":3166:3283   */\n      iszero\n      tag_87\n      jumpi\n        /* \"#utility.yul\":3202:3281   */\n      tag_88\n      tag_30\n      jump\t// in\n    tag_88:\n        /* \"#utility.yul\":3166:3283   */\n    tag_87:\n        /* \"#utility.yul\":3307:3370   */\n      tag_89\n        /* \"#utility.yul\":3362:3369   */\n      dup6\n        /* \"#utility.yul\":3353:3359   */\n      dup3\n        /* \"#utility.yul\":3342:3351   */\n      dup7\n        /* \"#utility.yul\":3338:3360   */\n      add\n        /* \"#utility.yul\":3307:3370   */\n      tag_40\n      jump\t// in\n    tag_89:\n        /* \"#utility.yul\":3297:3370   */\n      swap2\n      pop\n        /* \"#utility.yul\":3092:3380   */\n      pop\n        /* \"#utility.yul\":2553:3387   */\n      swap3\n      pop\n      swap3\n      swap1\n      pop\n      jump\t// out\n        /* \"#utility.yul\":3393:3492   */\n    tag_41:\n        /* \"#utility.yul\":3445:3451   */\n      0x00\n        /* \"#utility.yul\":3479:3484   */\n      dup2\n        /* \"#utility.yul\":3473:3485   */\n      mload\n        /* \"#utility.yul\":3463:3485   */\n      swap1\n      pop\n        /* \"#utility.yul\":3393:3492   */\n      swap2\n      swap1\n      pop\n      jump\t// out\n        /* \"#utility.yul\":3498:3667   */\n    tag_42:\n        /* \"#utility.yul\":3582:3593   */\n      0x00\n        /* \"#utility.yul\":3616:3622   */\n      dup3\n        /* \"#utility.yul\":3611:3614   */\n      dup3\n        /* \"#utility.yul\":3604:3623   */\n      mstore\n        /* \"#utility.yul\":3656:3660   */\n      0x20\n        /* \"#utility.yul\":3651:3654   */\n      dup3\n        /* \"#utility.yul\":3647:3661   */\n      add\n        /* \"#utility.yul\":3632:3661   */\n      swap1\n      pop\n        /* \"#utility.yul\":3498:3667   */\n      swap3\n      swap2\n      pop\n      pop\n      jump\t// out\n        /* \"#utility.yul\":3673:3919   */\n    tag_43:\n        /* \"#utility.yul\":3754:3755   */\n      0x00\n        /* \"#utility.yul\":3764:3877   */\n    tag_93:\n        /* \"#utility.yul\":3778:3784   */\n      dup4\n        /* \"#utility.yul\":3775:3776   */\n      dup2\n        /* \"#utility.yul\":3772:3785   */\n      lt\n        /* \"#utility.yul\":3764:3877   */\n      iszero\n      tag_95\n      jumpi\n        /* \"#utility.yul\":3863:3864   */\n      dup1\n        /* \"#utility.yul\":3858:3861   */\n      dup3\n        /* \"#utility.yul\":3854:3865   */\n      add\n        /* \"#utility.yul\":3848:3866   */\n      mload\n        /* \"#utility.yul\":3844:3845   */\n      dup2\n        /* \"#utility.yul\":3839:3842   */\n      dup5\n        /* \"#utility.yul\":3835:3846   */\n      add\n        /* \"#utility.yul\":3828:3867   */\n      mstore\n        /* \"#utility.yul\":3800:3802   */\n      0x20\n        /* \"#utility.yul\":3797:3798   */\n      dup2\n        /* \"#utility.yul\":3793:3803   */\n      add\n        /* \"#utility.yul\":3788:3803   */\n      swap1\n      pop\n        /* \"#utility.yul\":3764:3877   */\n      jump(tag_93)\n    tag_95:\n        /* \"#utility.yul\":3911:3912   */\n      0x00\n        /* \"#utility.yul\":3902:3908   */\n      dup5\n        /* \"#utility.yul\":3897:3900   */\n      dup5\n        /* \"#utility.yul\":3893:3909   */\n      add\n        /* \"#utility.yul\":3886:3913   */\n      mstore\n        /* \"#utility.yul\":3735:3919   */\n      pop\n        /* \"#utility.yul\":3673:3919   */\n      pop\n      pop\n      pop\n      jump\t// out\n        /* \"#utility.yul\":3925:4302   */\n    tag_44:\n        /* \"#utility.yul\":4013:4016   */\n      0x00\n        /* \"#utility.yul\":4041:4080   */\n      tag_97\n        /* \"#utility.yul\":4074:4079   */\n      dup3\n        /* \"#utility.yul\":4041:4080   */\n      tag_41\n      jump\t// in\n    tag_97:\n        /* \"#utility.yul\":4096:4167   */\n      tag_98\n        /* \"#utility.yul\":4160:4166   */\n      dup2\n        /* \"#utility.yul\":4155:4158   */\n      dup6\n        /* \"#utility.yul\":4096:4167   */\n      tag_42\n      jump\t// in\n    tag_98:\n        /* \"#utility.yul\":4089:4167   */\n      swap4\n      pop\n        /* \"#utility.yul\":4176:4241   */\n      tag_99\n        /* \"#utility.yul\":4234:4240   */\n      dup2\n        /* \"#utility.yul\":4229:4232   */\n      dup6\n        /* \"#utility.yul\":4222:4226   */\n      0x20\n        /* \"#utility.yul\":4215:4220   */\n      dup7\n        /* \"#utility.yul\":4211:4227   */\n      add\n        /* \"#utility.yul\":4176:4241   */\n      tag_43\n      jump\t// in\n    tag_99:\n        /* \"#utility.yul\":4266:4295   */\n      tag_100\n        /* \"#utility.yul\":4288:4294   */\n      dup2\n        /* \"#utility.yul\":4266:4295   */\n      tag_33\n      jump\t// in\n    tag_100:\n        /* \"#utility.yul\":4261:4264   */\n      dup5\n        /* \"#utility.yul\":4257:4296   */\n      add\n        /* \"#utility.yul\":4250:4296   */\n      swap2\n      pop\n        /* \"#utility.yul\":4017:4302   */\n      pop\n        /* \"#utility.yul\":3925:4302   */\n      swap3\n      swap2\n      pop\n      pop\n      jump\t// out\n        /* \"#utility.yul\":4308:4621   */\n    tag_11:\n        /* \"#utility.yul\":4421:4425   */\n      0x00\n        /* \"#utility.yul\":4459:4461   */\n      0x20\n        /* \"#utility.yul\":4448:4457   */\n      dup3\n        /* \"#utility.yul\":4444:4462   */\n      add\n        /* \"#utility.yul\":4436:4462   */\n      swap1\n      pop\n        /* \"#utility.yul\":4508:4517   */\n      dup2\n        /* \"#utility.yul\":4502:4506   */\n      dup2\n        /* \"#utility.yul\":4498:4518   */\n      sub\n        /* \"#utility.yul\":4494:4495   */\n      0x00\n        /* \"#utility.yul\":4483:4492   */\n      dup4\n        /* \"#utility.yul\":4479:4496   */\n      add\n        /* \"#utility.yul\":4472:4519   */\n      mstore\n        /* \"#utility.yul\":4536:4614   */\n      tag_102\n        /* \"#utility.yul\":4609:4613   */\n      dup2\n        /* \"#utility.yul\":4600:4606   */\n      dup5\n        /* \"#utility.yul\":4536:4614   */\n      tag_44\n      jump\t// in\n    tag_102:\n        /* \"#utility.yul\":4528:4614   */\n      swap1\n      pop\n        /* \"#utility.yul\":4308:4621   */\n      swap3\n      swap2\n      pop\n      pop\n      jump\t// out\n        /* \"#utility.yul\":4627:4775   */\n    tag_45:\n        /* \"#utility.yul\":4729:4740   */\n      0x00\n        /* \"#utility.yul\":4766:4769   */\n      dup2\n        /* \"#utility.yul\":4751:4769   */\n      swap1\n      pop\n        /* \"#utility.yul\":4627:4775   */\n      swap3\n      swap2\n      pop\n      pop\n      jump\t// out\n        /* \"#utility.yul\":4781:4938   */\n    tag_46:\n        /* \"#utility.yul\":4921:4930   */\n      0x6e616d65203a2000000000000000000000000000000000000000000000000000\n        /* \"#utility.yul\":4917:4918   */\n      0x00\n        /* \"#utility.yul\":4909:4915   */\n      dup3\n        /* \"#utility.yul\":4905:4919   */\n      add\n        /* \"#utility.yul\":4898:4931   */\n      mstore\n        /* \"#utility.yul\":4781:4938   */\n      pop\n      jump\t// out\n        /* \"#utility.yul\":4944:5344   */\n    tag_47:\n        /* \"#utility.yul\":5104:5107   */\n      0x00\n        /* \"#utility.yul\":5125:5209   */\n      tag_106\n        /* \"#utility.yul\":5207:5208   */\n      0x07\n        /* \"#utility.yul\":5202:5205   */\n      dup4\n        /* \"#utility.yul\":5125:5209   */\n      tag_45\n      jump\t// in\n    tag_106:\n        /* \"#utility.yul\":5118:5209   */\n      swap2\n      pop\n        /* \"#utility.yul\":5218:5311   */\n      tag_107\n        /* \"#utility.yul\":5307:5310   */\n      dup3\n        /* \"#utility.yul\":5218:5311   */\n      tag_46\n      jump\t// in\n    tag_107:\n        /* \"#utility.yul\":5336:5337   */\n      0x07\n        /* \"#utility.yul\":5331:5334   */\n      dup3\n        /* \"#utility.yul\":5327:5338   */\n      add\n        /* \"#utility.yul\":5320:5338   */\n      swap1\n      pop\n        /* \"#utility.yul\":4944:5344   */\n      swap2\n      swap1\n      pop\n      jump\t// out\n        /* \"#utility.yul\":5350:5740   */\n    tag_48:\n        /* \"#utility.yul\":5456:5459   */\n      0x00\n        /* \"#utility.yul\":5484:5523   */\n      tag_109\n        /* \"#utility.yul\":5517:5522   */\n      dup3\n        /* \"#utility.yul\":5484:5523   */\n      tag_41\n      jump\t// in\n    tag_109:\n        /* \"#utility.yul\":5539:5628   */\n      tag_110\n        /* \"#utility.yul\":5621:5627   */\n      dup2\n        /* \"#utility.yul\":5616:5619   */\n      dup6\n        /* \"#utility.yul\":5539:5628   */\n      tag_45\n      jump\t// in\n    tag_110:\n        /* \"#utility.yul\":5532:5628   */\n      swap4\n      pop\n        /* \"#utility.yul\":5637:5702   */\n      tag_111\n        /* \"#utility.yul\":5695:5701   */\n      dup2\n        /* \"#utility.yul\":5690:5693   */\n      dup6\n        /* \"#utility.yul\":5683:5687   */\n      0x20\n        /* \"#utility.yul\":5676:5681   */\n      dup7\n        /* \"#utility.yul\":5672:5688   */\n      add\n        /* \"#utility.yul\":5637:5702   */\n      tag_43\n      jump\t// in\n    tag_111:\n        /* \"#utility.yul\":5727:5733   */\n      dup1\n        /* \"#utility.yul\":5722:5725   */\n      dup5\n        /* \"#utility.yul\":5718:5734   */\n      add\n        /* \"#utility.yul\":5711:5734   */\n      swap2\n      pop\n        /* \"#utility.yul\":5460:5740   */\n      pop\n        /* \"#utility.yul\":5350:5740   */\n      swap3\n      swap2\n      pop\n      pop\n      jump\t// out\n        /* \"#utility.yul\":5746:5902   */\n    tag_49:\n        /* \"#utility.yul\":5886:5894   */\n      0x616765203a200000000000000000000000000000000000000000000000000000\n        /* \"#utility.yul\":5882:5883   */\n      0x00\n        /* \"#utility.yul\":5874:5880   */\n      dup3\n        /* \"#utility.yul\":5870:5884   */\n      add\n        /* \"#utility.yul\":5863:5895   */\n      mstore\n        /* \"#utility.yul\":5746:5902   */\n      pop\n      jump\t// out\n        /* \"#utility.yul\":5908:6308   */\n    tag_50:\n        /* \"#utility.yul\":6068:6071   */\n      0x00\n        /* \"#utility.yul\":6089:6173   */\n      tag_114\n        /* \"#utility.yul\":6171:6172   */\n      0x06\n        /* \"#utility.yul\":6166:6169   */\n      dup4\n        /* \"#utility.yul\":6089:6173   */\n      tag_45\n      jump\t// in\n    tag_114:\n        /* \"#utility.yul\":6082:6173   */\n      swap2\n      pop\n        /* \"#utility.yul\":6182:6275   */\n      tag_115\n        /* \"#utility.yul\":6271:6274   */\n      dup3\n        /* \"#utility.yul\":6182:6275   */\n      tag_49\n      jump\t// in\n    tag_115:\n        /* \"#utility.yul\":6300:6301   */\n      0x06\n        /* \"#utility.yul\":6295:6298   */\n      dup3\n        /* \"#utility.yul\":6291:6302   */\n      add\n        /* \"#utility.yul\":6284:6302   */\n      swap1\n      pop\n        /* \"#utility.yul\":5908:6308   */\n      swap2\n      swap1\n      pop\n      jump\t// out\n        /* \"#utility.yul\":6314:7281   */\n    tag_22:\n        /* \"#utility.yul\":6696:6699   */\n      0x00\n        /* \"#utility.yul\":6718:6866   */\n      tag_117\n        /* \"#utility.yul\":6862:6865   */\n      dup3\n        /* \"#utility.yul\":6718:6866   */\n      tag_47\n      jump\t// in\n    tag_117:\n        /* \"#utility.yul\":6711:6866   */\n      swap2\n      pop\n        /* \"#utility.yul\":6883:6978   */\n      tag_118\n        /* \"#utility.yul\":6974:6977   */\n      dup3\n        /* \"#utility.yul\":6965:6971   */\n      dup6\n        /* \"#utility.yul\":6883:6978   */\n      tag_48\n      jump\t// in\n    tag_118:\n        /* \"#utility.yul\":6876:6978   */\n      swap2\n      pop\n        /* \"#utility.yul\":6995:7143   */\n      tag_119\n        /* \"#utility.yul\":7139:7142   */\n      dup3\n        /* \"#utility.yul\":6995:7143   */\n      tag_50\n      jump\t// in\n    tag_119:\n        /* \"#utility.yul\":6988:7143   */\n      swap2\n      pop\n        /* \"#utility.yul\":7160:7255   */\n      tag_120\n        /* \"#utility.yul\":7251:7254   */\n      dup3\n        /* \"#utility.yul\":7242:7248   */\n      dup5\n        /* \"#utility.yul\":7160:7255   */\n      tag_48\n      jump\t// in\n    tag_120:\n        /* \"#utility.yul\":7153:7255   */\n      swap2\n      pop\n        /* \"#utility.yul\":7272:7275   */\n      dup2\n        /* \"#utility.yul\":7265:7275   */\n      swap1\n      pop\n        /* \"#utility.yul\":6314:7281   */\n      swap4\n      swap3\n      pop\n      pop\n      pop\n      jump\t// out\n        /* \"#utility.yul\":7287:7722   */\n    tag_25:\n        /* \"#utility.yul\":7467:7470   */\n      0x00\n        /* \"#utility.yul\":7489:7584   */\n      tag_122\n        /* \"#utility.yul\":7580:7583   */\n      dup3\n        /* \"#utility.yul\":7571:7577   */\n      dup6\n        /* \"#utility.yul\":7489:7584   */\n      tag_48\n      jump\t// in\n    tag_122:\n        /* \"#utility.yul\":7482:7584   */\n      swap2\n      pop\n        /* \"#utility.yul\":7601:7696   */\n      tag_123\n        /* \"#utility.yul\":7692:7695   */\n      dup3\n        /* \"#utility.yul\":7683:7689   */\n      dup5\n        /* \"#utility.yul\":7601:7696   */\n      tag_48\n      jump\t// in\n    tag_123:\n        /* \"#utility.yul\":7594:7696   */\n      swap2\n      pop\n        /* \"#utility.yul\":7713:7716   */\n      dup2\n        /* \"#utility.yul\":7706:7716   */\n      swap1\n      pop\n        /* \"#utility.yul\":7287:7722   */\n      swap4\n      swap3\n      pop\n      pop\n      pop\n      jump\t// out\n\n    auxdata: 0xa26469706673582212202c66a232af9587d08732e585e6efce3cd4efb33850237fed4cb3437c57c252ce64736f6c63430008170033\n}\n",
				"bytecode": {
					"linkReferences": {},
					"object": "608060405234801561000f575f80fd5b506105148061001d5f395ff3fe608060405234801561000f575f80fd5b506004361061003f575f3560e01c8063062b736614610043578063252a1437146100735780633d9799b4146100a3575b5f80fd5b61005d600480360381019061005891906102a4565b6100d3565b60405161006a9190610394565b60405180910390f35b61008d600480360381019061008891906102a4565b6100ff565b60405161009a9190610394565b60405180910390f35b6100bd60048036038101906100b891906102a4565b61012b565b6040516100ca9190610394565b60405180910390f35b606082826040516020016100e8929190610482565b604051602081830303815290604052905092915050565b606082826040516020016101149291906104bb565b604051602081830303815290604052905092915050565b606082826040516020016101409291906104bb565b604051602081830303815290604052905092915050565b5f604051905090565b5f80fd5b5f80fd5b5f80fd5b5f80fd5b5f601f19601f8301169050919050565b7f4e487b71000000000000000000000000000000000000000000000000000000005f52604160045260245ffd5b6101b682610170565b810181811067ffffffffffffffff821117156101d5576101d4610180565b5b80604052505050565b5f6101e7610157565b90506101f382826101ad565b919050565b5f67ffffffffffffffff82111561021257610211610180565b5b61021b82610170565b9050602081019050919050565b828183375f83830152505050565b5f610248610243846101f8565b6101de565b9050828152602081018484840111156102645761026361016c565b5b61026f848285610228565b509392505050565b5f82601f83011261028b5761028a610168565b5b813561029b848260208601610236565b91505092915050565b5f80604083850312156102ba576102b9610160565b5b5f83013567ffffffffffffffff8111156102d7576102d6610164565b5b6102e385828601610277565b925050602083013567ffffffffffffffff81111561030457610303610164565b5b61031085828601610277565b9150509250929050565b5f81519050919050565b5f82825260208201905092915050565b5f5b83811015610351578082015181840152602081019050610336565b5f8484015250505050565b5f6103668261031a565b6103708185610324565b9350610380818560208601610334565b61038981610170565b840191505092915050565b5f6020820190508181035f8301526103ac818461035c565b905092915050565b5f81905092915050565b7f6e616d65203a20000000000000000000000000000000000000000000000000005f82015250565b5f6103f26007836103b4565b91506103fd826103be565b600782019050919050565b5f6104128261031a565b61041c81856103b4565b935061042c818560208601610334565b80840191505092915050565b7f616765203a2000000000000000000000000000000000000000000000000000005f82015250565b5f61046c6006836103b4565b915061047782610438565b600682019050919050565b5f61048c826103e6565b91506104988285610408565b91506104a382610460565b91506104af8284610408565b91508190509392505050565b5f6104c68285610408565b91506104d28284610408565b9150819050939250505056fea26469706673582212202c66a232af9587d08732e585e6efce3cd4efb33850237fed4cb3437c57c252ce64736f6c63430008170033",
					"opcodes": "PUSH1 0x80 PUSH1 0x40 MSTORE CALLVALUE DUP1 ISZERO PUSH2 0xF JUMPI PUSH0 DUP1 REVERT JUMPDEST POP PUSH2 0x514 DUP1 PUSH2 0x1D PUSH0 CODECOPY PUSH0 RETURN INVALID PUSH1 0x80 PUSH1 0x40 MSTORE CALLVALUE DUP1 ISZERO PUSH2 0xF JUMPI PUSH0 DUP1 REVERT JUMPDEST POP PUSH1 0x4 CALLDATASIZE LT PUSH2 0x3F JUMPI PUSH0 CALLDATALOAD PUSH1 0xE0 SHR DUP1 PUSH4 0x62B7366 EQ PUSH2 0x43 JUMPI DUP1 PUSH4 0x252A1437 EQ PUSH2 0x73 JUMPI DUP1 PUSH4 0x3D9799B4 EQ PUSH2 0xA3 JUMPI JUMPDEST PUSH0 DUP1 REVERT JUMPDEST PUSH2 0x5D PUSH1 0x4 DUP1 CALLDATASIZE SUB DUP2 ADD SWAP1 PUSH2 0x58 SWAP2 SWAP1 PUSH2 0x2A4 JUMP JUMPDEST PUSH2 0xD3 JUMP JUMPDEST PUSH1 0x40 MLOAD PUSH2 0x6A SWAP2 SWAP1 PUSH2 0x394 JUMP JUMPDEST PUSH1 0x40 MLOAD DUP1 SWAP2 SUB SWAP1 RETURN JUMPDEST PUSH2 0x8D PUSH1 0x4 DUP1 CALLDATASIZE SUB DUP2 ADD SWAP1 PUSH2 0x88 SWAP2 SWAP1 PUSH2 0x2A4 JUMP JUMPDEST PUSH2 0xFF JUMP JUMPDEST PUSH1 0x40 MLOAD PUSH2 0x9A SWAP2 SWAP1 PUSH2 0x394 JUMP JUMPDEST PUSH1 0x40 MLOAD DUP1 SWAP2 SUB SWAP1 RETURN JUMPDEST PUSH2 0xBD PUSH1 0x4 DUP1 CALLDATASIZE SUB DUP2 ADD SWAP1 PUSH2 0xB8 SWAP2 SWAP1 PUSH2 0x2A4 JUMP JUMPDEST PUSH2 0x12B JUMP JUMPDEST PUSH1 0x40 MLOAD PUSH2 0xCA SWAP2 SWAP1 PUSH2 0x394 JUMP JUMPDEST PUSH1 0x40 MLOAD DUP1 SWAP2 SUB SWAP1 RETURN JUMPDEST PUSH1 0x60 DUP3 DUP3 PUSH1 0x40 MLOAD PUSH1 0x20 ADD PUSH2 0xE8 SWAP3 SWAP2 SWAP1 PUSH2 0x482 JUMP JUMPDEST PUSH1 0x40 MLOAD PUSH1 0x20 DUP2 DUP4 SUB SUB DUP2 MSTORE SWAP1 PUSH1 0x40 MSTORE SWAP1 POP SWAP3 SWAP2 POP POP JUMP JUMPDEST PUSH1 0x60 DUP3 DUP3 PUSH1 0x40 MLOAD PUSH1 0x20 ADD PUSH2 0x114 SWAP3 SWAP2 SWAP1 PUSH2 0x4BB JUMP JUMPDEST PUSH1 0x40 MLOAD PUSH1 0x20 DUP2 DUP4 SUB SUB DUP2 MSTORE SWAP1 PUSH1 0x40 MSTORE SWAP1 POP SWAP3 SWAP2 POP POP JUMP JUMPDEST PUSH1 0x60 DUP3 DUP3 PUSH1 0x40 MLOAD PUSH1 0x20 ADD PUSH2 0x140 SWAP3 SWAP2 SWAP1 PUSH2 0x4BB JUMP JUMPDEST PUSH1 0x40 MLOAD PUSH1 0x20 DUP2 DUP4 SUB SUB DUP2 MSTORE SWAP1 PUSH1 0x40 MSTORE SWAP1 POP SWAP3 SWAP2 POP POP JUMP JUMPDEST PUSH0 PUSH1 0x40 MLOAD SWAP1 POP SWAP1 JUMP JUMPDEST PUSH0 DUP1 REVERT JUMPDEST PUSH0 DUP1 REVERT JUMPDEST PUSH0 DUP1 REVERT JUMPDEST PUSH0 DUP1 REVERT JUMPDEST PUSH0 PUSH1 0x1F NOT PUSH1 0x1F DUP4 ADD AND SWAP1 POP SWAP2 SWAP1 POP JUMP JUMPDEST PUSH32 0x4E487B7100000000000000000000000000000000000000000000000000000000 PUSH0 MSTORE PUSH1 0x41 PUSH1 0x4 MSTORE PUSH1 0x24 PUSH0 REVERT JUMPDEST PUSH2 0x1B6 DUP3 PUSH2 0x170 JUMP JUMPDEST DUP2 ADD DUP2 DUP2 LT PUSH8 0xFFFFFFFFFFFFFFFF DUP3 GT OR ISZERO PUSH2 0x1D5 JUMPI PUSH2 0x1D4 PUSH2 0x180 JUMP JUMPDEST JUMPDEST DUP1 PUSH1 0x40 MSTORE POP POP POP JUMP JUMPDEST PUSH0 PUSH2 0x1E7 PUSH2 0x157 JUMP JUMPDEST SWAP1 POP PUSH2 0x1F3 DUP3 DUP3 PUSH2 0x1AD JUMP JUMPDEST SWAP2 SWAP1 POP JUMP JUMPDEST PUSH0 PUSH8 0xFFFFFFFFFFFFFFFF DUP3 GT ISZERO PUSH2 0x212 JUMPI PUSH2 0x211 PUSH2 0x180 JUMP JUMPDEST JUMPDEST PUSH2 0x21B DUP3 PUSH2 0x170 JUMP JUMPDEST SWAP1 POP PUSH1 0x20 DUP2 ADD SWAP1 POP SWAP2 SWAP1 POP JUMP JUMPDEST DUP3 DUP2 DUP4 CALLDATACOPY PUSH0 DUP4 DUP4 ADD MSTORE POP POP POP JUMP JUMPDEST PUSH0 PUSH2 0x248 PUSH2 0x243 DUP5 PUSH2 0x1F8 JUMP JUMPDEST PUSH2 0x1DE JUMP JUMPDEST SWAP1 POP DUP3 DUP2 MSTORE PUSH1 0x20 DUP2 ADD DUP5 DUP5 DUP5 ADD GT ISZERO PUSH2 0x264 JUMPI PUSH2 0x263 PUSH2 0x16C JUMP JUMPDEST JUMPDEST PUSH2 0x26F DUP5 DUP3 DUP6 PUSH2 0x228 JUMP JUMPDEST POP SWAP4 SWAP3 POP POP POP JUMP JUMPDEST PUSH0 DUP3 PUSH1 0x1F DUP4 ADD SLT PUSH2 0x28B JUMPI PUSH2 0x28A PUSH2 0x168 JUMP JUMPDEST JUMPDEST DUP2 CALLDATALOAD PUSH2 0x29B DUP5 DUP3 PUSH1 0x20 DUP7 ADD PUSH2 0x236 JUMP JUMPDEST SWAP2 POP POP SWAP3 SWAP2 POP POP JUMP JUMPDEST PUSH0 DUP1 PUSH1 0x40 DUP4 DUP6 SUB SLT ISZERO PUSH2 0x2BA JUMPI PUSH2 0x2B9 PUSH2 0x160 JUMP JUMPDEST JUMPDEST PUSH0 DUP4 ADD CALLDATALOAD PUSH8 0xFFFFFFFFFFFFFFFF DUP2 GT ISZERO PUSH2 0x2D7 JUMPI PUSH2 0x2D6 PUSH2 0x164 JUMP JUMPDEST JUMPDEST PUSH2 0x2E3 DUP6 DUP3 DUP7 ADD PUSH2 0x277 JUMP JUMPDEST SWAP3 POP POP PUSH1 0x20 DUP4 ADD CALLDATALOAD PUSH8 0xFFFFFFFFFFFFFFFF DUP2 GT ISZERO PUSH2 0x304 JUMPI PUSH2 0x303 PUSH2 0x164 JUMP JUMPDEST JUMPDEST PUSH2 0x310 DUP6 DUP3 DUP7 ADD PUSH2 0x277 JUMP JUMPDEST SWAP2 POP POP SWAP3 POP SWAP3 SWAP1 POP JUMP JUMPDEST PUSH0 DUP2 MLOAD SWAP1 POP SWAP2 SWAP1 POP JUMP JUMPDEST PUSH0 DUP3 DUP3 MSTORE PUSH1 0x20 DUP3 ADD SWAP1 POP SWAP3 SWAP2 POP POP JUMP JUMPDEST PUSH0 JUMPDEST DUP4 DUP2 LT ISZERO PUSH2 0x351 JUMPI DUP1 DUP3 ADD MLOAD DUP2 DUP5 ADD MSTORE PUSH1 0x20 DUP2 ADD SWAP1 POP PUSH2 0x336 JUMP JUMPDEST PUSH0 DUP5 DUP5 ADD MSTORE POP POP POP POP JUMP JUMPDEST PUSH0 PUSH2 0x366 DUP3 PUSH2 0x31A JUMP JUMPDEST PUSH2 0x370 DUP2 DUP6 PUSH2 0x324 JUMP JUMPDEST SWAP4 POP PUSH2 0x380 DUP2 DUP6 PUSH1 0x20 DUP7 ADD PUSH2 0x334 JUMP JUMPDEST PUSH2 0x389 DUP2 PUSH2 0x170 JUMP JUMPDEST DUP5 ADD SWAP2 POP POP SWAP3 SWAP2 POP POP JUMP JUMPDEST PUSH0 PUSH1 0x20 DUP3 ADD SWAP1 POP DUP2 DUP2 SUB PUSH0 DUP4 ADD MSTORE PUSH2 0x3AC DUP2 DUP5 PUSH2 0x35C JUMP JUMPDEST SWAP1 POP SWAP3 SWAP2 POP POP JUMP JUMPDEST PUSH0 DUP2 SWAP1 POP SWAP3 SWAP2 POP POP JUMP JUMPDEST PUSH32 0x6E616D65203A2000000000000000000000000000000000000000000000000000 PUSH0 DUP3 ADD MSTORE POP JUMP JUMPDEST PUSH0 PUSH2 0x3F2 PUSH1 0x7 DUP4 PUSH2 0x3B4 JUMP JUMPDEST SWAP2 POP PUSH2 0x3FD DUP3 PUSH2 0x3BE JUMP JUMPDEST PUSH1 0x7 DUP3 ADD SWAP1 POP SWAP2 SWAP1 POP JUMP JUMPDEST PUSH0 PUSH2 0x412 DUP3 PUSH2 0x31A JUMP JUMPDEST PUSH2 0x41C DUP2 DUP6 PUSH2 0x3B4 JUMP JUMPDEST SWAP4 POP PUSH2 0x42C DUP2 DUP6 PUSH1 0x20 DUP7 ADD PUSH2 0x334 JUMP JUMPDEST DUP1 DUP5 ADD SWAP2 POP POP SWAP3 SWAP2 POP POP JUMP JUMPDEST PUSH32 0x616765203A200000000000000000000000000000000000000000000000000000 PUSH0 DUP3 ADD MSTORE POP JUMP JUMPDEST PUSH0 PUSH2 0x46C PUSH1 0x6 DUP4 PUSH2 0x3B4 JUMP JUMPDEST SWAP2 POP PUSH2 0x477 DUP3 PUSH2 0x438 JUMP JUMPDEST PUSH1 0x6 DUP3 ADD SWAP1 POP SWAP2 SWAP1 POP JUMP JUMPDEST PUSH0 PUSH2 0x48C DUP3 PUSH2 0x3E6 JUMP JUMPDEST SWAP2 POP PUSH2 0x498 DUP3 DUP6 PUSH2 0x408 JUMP JUMPDEST SWAP2 POP PUSH2 0x4A3 DUP3 PUSH2 0x460 JUMP JUMPDEST SWAP2 POP PUSH2 0x4AF DUP3 DUP5 PUSH2 0x408 JUMP JUMPDEST SWAP2 POP DUP2 SWAP1 POP SWAP4 SWAP3 POP POP POP JUMP JUMPDEST PUSH0 PUSH2 0x4C6 DUP3 DUP6 PUSH2 0x408 JUMP JUMPDEST SWAP2 POP PUSH2 0x4D2 DUP3 DUP5 PUSH2 0x408 JUMP JUMPDEST SWAP2 POP DUP2 SWAP1 POP SWAP4 SWAP3 POP POP POP JUMP INVALID LOG2 PUSH5 0x6970667358 0x22 SLT KECCAK256 0x2C PUSH7 0xA232AF9587D087 ORIGIN 0xE5 DUP6 0xE6 0xEF 0xCE EXTCODECOPY 0xD4 0xEF 0xB3 CODESIZE POP 0x23 PUSH32 0xED4CB3437C57C252CE64736F6C63430008170033000000000000000000000000 "
				},
				"gasEstimates": {
					"creation": {
						"codeDepositCost": "260000",
						"executionCost": "298",
						"totalCost": "260298"
					},
					"external": {
						"concat1(string,string)": "infinite",
						"concat2(string,string)": "infinite",
						"concat3(string,string)": "infinite"
					}
				},
				"methodIdentifiers": {
					"concat1(string,string)": "3d9799b4",
					"concat2(string,string)": "252a1437",
					"concat3(string,string)": "062b7366"
				}
			},
			"storageLayout": {
				"storage": [],
				"types": null
			},
			"userdoc": {
				"kind": "user",
				"methods": {},
				"version": 1
			}
		}
	}
}