{
	"question1020.sol": {
		"Q1": {
			"abi": [
				{
					"inputs": [
						{
							"internalType": "uint256",
							"name": "_a",
							"type": "uint256"
						},
						{
							"internalType": "uint256",
							"name": "_b",
							"type": "uint256"
						}
					],
					"name": "add",
					"outputs": [
						{
							"internalType": "uint256",
							"name": "",
							"type": "uint256"
						}
					],
					"stateMutability": "pure",
					"type": "function"
				},
				{
					"inputs": [
						{
							"internalType": "int256",
							"name": "_a",
							"type": "int256"
						},
						{
							"internalType": "int256",
							"name": "_b",
							"type": "int256"
						}
					],
					"name": "sub",
					"outputs": [
						{
							"internalType": "int256",
							"name": "",
							"type": "int256"
						}
					],
					"stateMutability": "pure",
					"type": "function"
				}
			],
			"devdoc": {
				"kind": "dev",
				"methods": {},
				"version": 1
			},
			"evm": {
				"assembly": "    /* \"question1020.sol\":58:369  contract Q1 {... */\n  mstore(0x40, 0x80)\n  callvalue\n  dup1\n  iszero\n  tag_1\n  jumpi\n  0x00\n  dup1\n  revert\ntag_1:\n  pop\n  dataSize(sub_0)\n  dup1\n  dataOffset(sub_0)\n  0x00\n  codecopy\n  0x00\n  return\nstop\n\nsub_0: assembly {\n        /* \"question1020.sol\":58:369  contract Q1 {... */\n      mstore(0x40, 0x80)\n      callvalue\n      dup1\n      iszero\n      tag_1\n      jumpi\n      0x00\n      dup1\n      revert\n    tag_1:\n      pop\n      jumpi(tag_2, lt(calldatasize, 0x04))\n      shr(0xe0, calldataload(0x00))\n      dup1\n      0x771602f7\n      eq\n      tag_3\n      jumpi\n      dup1\n      0xadefc37b\n      eq\n      tag_4\n      jumpi\n    tag_2:\n      0x00\n      dup1\n      revert\n        /* \"question1020.sol\":185:273  function add(uint _a, uint _b) public pure returns(uint) {... */\n    tag_3:\n      tag_5\n      0x04\n      dup1\n      calldatasize\n      sub\n      dup2\n      add\n      swap1\n      tag_6\n      swap2\n      swap1\n      tag_7\n      jump\t// in\n    tag_6:\n      tag_8\n      jump\t// in\n    tag_5:\n      mload(0x40)\n      tag_9\n      swap2\n      swap1\n      tag_10\n      jump\t// in\n    tag_9:\n      mload(0x40)\n      dup1\n      swap2\n      sub\n      swap1\n      return\n        /* \"question1020.sol\":280:365  function sub(int _a, int _b) public pure returns(int) {... */\n    tag_4:\n      tag_11\n      0x04\n      dup1\n      calldatasize\n      sub\n      dup2\n      add\n      swap1\n      tag_12\n      swap2\n      swap1\n      tag_13\n      jump\t// in\n    tag_12:\n      tag_14\n      jump\t// in\n    tag_11:\n      mload(0x40)\n      tag_15\n      swap2\n      swap1\n      tag_16\n      jump\t// in\n    tag_15:\n      mload(0x40)\n      dup1\n      swap2\n      sub\n      swap1\n      return\n        /* \"question1020.sol\":185:273  function add(uint _a, uint _b) public pure returns(uint) {... */\n    tag_8:\n        /* \"question1020.sol\":236:240  uint */\n      0x00\n        /* \"question1020.sol\":264:266  _b */\n      dup2\n        /* \"question1020.sol\":259:261  _a */\n      dup4\n        /* \"question1020.sol\":259:266  _a + _b */\n      tag_18\n      swap2\n      swap1\n      tag_19\n      jump\t// in\n    tag_18:\n        /* \"question1020.sol\":252:266  return _a + _b */\n      swap1\n      pop\n        /* \"question1020.sol\":185:273  function add(uint _a, uint _b) public pure returns(uint) {... */\n      swap3\n      swap2\n      pop\n      pop\n      jump\t// out\n        /* \"question1020.sol\":280:365  function sub(int _a, int _b) public pure returns(int) {... */\n    tag_14:\n        /* \"question1020.sol\":329:332  int */\n      0x00\n        /* \"question1020.sol\":356:358  _b */\n      dup2\n        /* \"question1020.sol\":351:353  _a */\n      dup4\n        /* \"question1020.sol\":351:358  _a - _b */\n      tag_21\n      swap2\n      swap1\n      tag_22\n      jump\t// in\n    tag_21:\n        /* \"question1020.sol\":344:358  return _a - _b */\n      swap1\n      pop\n        /* \"question1020.sol\":280:365  function sub(int _a, int _b) public pure returns(int) {... */\n      swap3\n      swap2\n      pop\n      pop\n      jump\t// out\n        /* \"#utility.yul\":88:205   */\n    tag_24:\n        /* \"#utility.yul\":197:198   */\n      0x00\n        /* \"#utility.yul\":194:195   */\n      dup1\n        /* \"#utility.yul\":187:199   */\n      revert\n        /* \"#utility.yul\":334:411   */\n    tag_26:\n        /* \"#utility.yul\":371:378   */\n      0x00\n        /* \"#utility.yul\":400:405   */\n      dup2\n        /* \"#utility.yul\":389:405   */\n      swap1\n      pop\n        /* \"#utility.yul\":334:411   */\n      swap2\n      swap1\n      pop\n      jump\t// out\n        /* \"#utility.yul\":417:539   */\n    tag_27:\n        /* \"#utility.yul\":490:514   */\n      tag_41\n        /* \"#utility.yul\":508:513   */\n      dup2\n        /* \"#utility.yul\":490:514   */\n      tag_26\n      jump\t// in\n    tag_41:\n        /* \"#utility.yul\":483:488   */\n      dup2\n        /* \"#utility.yul\":480:515   */\n      eq\n        /* \"#utility.yul\":470:533   */\n      tag_42\n      jumpi\n        /* \"#utility.yul\":529:530   */\n      0x00\n        /* \"#utility.yul\":526:527   */\n      dup1\n        /* \"#utility.yul\":519:531   */\n      revert\n        /* \"#utility.yul\":470:533   */\n    tag_42:\n        /* \"#utility.yul\":417:539   */\n      pop\n      jump\t// out\n        /* \"#utility.yul\":545:684   */\n    tag_28:\n        /* \"#utility.yul\":591:596   */\n      0x00\n        /* \"#utility.yul\":629:635   */\n      dup2\n        /* \"#utility.yul\":616:636   */\n      calldataload\n        /* \"#utility.yul\":607:636   */\n      swap1\n      pop\n        /* \"#utility.yul\":645:678   */\n      tag_44\n        /* \"#utility.yul\":672:677   */\n      dup2\n        /* \"#utility.yul\":645:678   */\n      tag_27\n      jump\t// in\n    tag_44:\n        /* \"#utility.yul\":545:684   */\n      swap3\n      swap2\n      pop\n      pop\n      jump\t// out\n        /* \"#utility.yul\":690:1164   */\n    tag_7:\n        /* \"#utility.yul\":758:764   */\n      0x00\n        /* \"#utility.yul\":766:772   */\n      dup1\n        /* \"#utility.yul\":815:817   */\n      0x40\n        /* \"#utility.yul\":803:812   */\n      dup4\n        /* \"#utility.yul\":794:801   */\n      dup6\n        /* \"#utility.yul\":790:813   */\n      sub\n        /* \"#utility.yul\":786:818   */\n      slt\n        /* \"#utility.yul\":783:902   */\n      iszero\n      tag_46\n      jumpi\n        /* \"#utility.yul\":821:900   */\n      tag_47\n      tag_24\n      jump\t// in\n    tag_47:\n        /* \"#utility.yul\":783:902   */\n    tag_46:\n        /* \"#utility.yul\":941:942   */\n      0x00\n        /* \"#utility.yul\":966:1019   */\n      tag_48\n        /* \"#utility.yul\":1011:1018   */\n      dup6\n        /* \"#utility.yul\":1002:1008   */\n      dup3\n        /* \"#utility.yul\":991:1000   */\n      dup7\n        /* \"#utility.yul\":987:1009   */\n      add\n        /* \"#utility.yul\":966:1019   */\n      tag_28\n      jump\t// in\n    tag_48:\n        /* \"#utility.yul\":956:1019   */\n      swap3\n      pop\n        /* \"#utility.yul\":912:1029   */\n      pop\n        /* \"#utility.yul\":1068:1070   */\n      0x20\n        /* \"#utility.yul\":1094:1147   */\n      tag_49\n        /* \"#utility.yul\":1139:1146   */\n      dup6\n        /* \"#utility.yul\":1130:1136   */\n      dup3\n        /* \"#utility.yul\":1119:1128   */\n      dup7\n        /* \"#utility.yul\":1115:1137   */\n      add\n        /* \"#utility.yul\":1094:1147   */\n      tag_28\n      jump\t// in\n    tag_49:\n        /* \"#utility.yul\":1084:1147   */\n      swap2\n      pop\n        /* \"#utility.yul\":1039:1157   */\n      pop\n        /* \"#utility.yul\":690:1164   */\n      swap3\n      pop\n      swap3\n      swap1\n      pop\n      jump\t// out\n        /* \"#utility.yul\":1170:1288   */\n    tag_29:\n        /* \"#utility.yul\":1257:1281   */\n      tag_51\n        /* \"#utility.yul\":1275:1280   */\n      dup2\n        /* \"#utility.yul\":1257:1281   */\n      tag_26\n      jump\t// in\n    tag_51:\n        /* \"#utility.yul\":1252:1255   */\n      dup3\n        /* \"#utility.yul\":1245:1282   */\n      mstore\n        /* \"#utility.yul\":1170:1288   */\n      pop\n      pop\n      jump\t// out\n        /* \"#utility.yul\":1294:1516   */\n    tag_10:\n        /* \"#utility.yul\":1387:1391   */\n      0x00\n        /* \"#utility.yul\":1425:1427   */\n      0x20\n        /* \"#utility.yul\":1414:1423   */\n      dup3\n        /* \"#utility.yul\":1410:1428   */\n      add\n        /* \"#utility.yul\":1402:1428   */\n      swap1\n      pop\n        /* \"#utility.yul\":1438:1509   */\n      tag_53\n        /* \"#utility.yul\":1506:1507   */\n      0x00\n        /* \"#utility.yul\":1495:1504   */\n      dup4\n        /* \"#utility.yul\":1491:1508   */\n      add\n        /* \"#utility.yul\":1482:1488   */\n      dup5\n        /* \"#utility.yul\":1438:1509   */\n      tag_29\n      jump\t// in\n    tag_53:\n        /* \"#utility.yul\":1294:1516   */\n      swap3\n      swap2\n      pop\n      pop\n      jump\t// out\n        /* \"#utility.yul\":1522:1598   */\n    tag_30:\n        /* \"#utility.yul\":1558:1565   */\n      0x00\n        /* \"#utility.yul\":1587:1592   */\n      dup2\n        /* \"#utility.yul\":1576:1592   */\n      swap1\n      pop\n        /* \"#utility.yul\":1522:1598   */\n      swap2\n      swap1\n      pop\n      jump\t// out\n        /* \"#utility.yul\":1604:1724   */\n    tag_31:\n        /* \"#utility.yul\":1676:1699   */\n      tag_56\n        /* \"#utility.yul\":1693:1698   */\n      dup2\n        /* \"#utility.yul\":1676:1699   */\n      tag_30\n      jump\t// in\n    tag_56:\n        /* \"#utility.yul\":1669:1674   */\n      dup2\n        /* \"#utility.yul\":1666:1700   */\n      eq\n        /* \"#utility.yul\":1656:1718   */\n      tag_57\n      jumpi\n        /* \"#utility.yul\":1714:1715   */\n      0x00\n        /* \"#utility.yul\":1711:1712   */\n      dup1\n        /* \"#utility.yul\":1704:1716   */\n      revert\n        /* \"#utility.yul\":1656:1718   */\n    tag_57:\n        /* \"#utility.yul\":1604:1724   */\n      pop\n      jump\t// out\n        /* \"#utility.yul\":1730:1867   */\n    tag_32:\n        /* \"#utility.yul\":1775:1780   */\n      0x00\n        /* \"#utility.yul\":1813:1819   */\n      dup2\n        /* \"#utility.yul\":1800:1820   */\n      calldataload\n        /* \"#utility.yul\":1791:1820   */\n      swap1\n      pop\n        /* \"#utility.yul\":1829:1861   */\n      tag_59\n        /* \"#utility.yul\":1855:1860   */\n      dup2\n        /* \"#utility.yul\":1829:1861   */\n      tag_31\n      jump\t// in\n    tag_59:\n        /* \"#utility.yul\":1730:1867   */\n      swap3\n      swap2\n      pop\n      pop\n      jump\t// out\n        /* \"#utility.yul\":1873:2343   */\n    tag_13:\n        /* \"#utility.yul\":1939:1945   */\n      0x00\n        /* \"#utility.yul\":1947:1953   */\n      dup1\n        /* \"#utility.yul\":1996:1998   */\n      0x40\n        /* \"#utility.yul\":1984:1993   */\n      dup4\n        /* \"#utility.yul\":1975:1982   */\n      dup6\n        /* \"#utility.yul\":1971:1994   */\n      sub\n        /* \"#utility.yul\":1967:1999   */\n      slt\n        /* \"#utility.yul\":1964:2083   */\n      iszero\n      tag_61\n      jumpi\n        /* \"#utility.yul\":2002:2081   */\n      tag_62\n      tag_24\n      jump\t// in\n    tag_62:\n        /* \"#utility.yul\":1964:2083   */\n    tag_61:\n        /* \"#utility.yul\":2122:2123   */\n      0x00\n        /* \"#utility.yul\":2147:2199   */\n      tag_63\n        /* \"#utility.yul\":2191:2198   */\n      dup6\n        /* \"#utility.yul\":2182:2188   */\n      dup3\n        /* \"#utility.yul\":2171:2180   */\n      dup7\n        /* \"#utility.yul\":2167:2189   */\n      add\n        /* \"#utility.yul\":2147:2199   */\n      tag_32\n      jump\t// in\n    tag_63:\n        /* \"#utility.yul\":2137:2199   */\n      swap3\n      pop\n        /* \"#utility.yul\":2093:2209   */\n      pop\n        /* \"#utility.yul\":2248:2250   */\n      0x20\n        /* \"#utility.yul\":2274:2326   */\n      tag_64\n        /* \"#utility.yul\":2318:2325   */\n      dup6\n        /* \"#utility.yul\":2309:2315   */\n      dup3\n        /* \"#utility.yul\":2298:2307   */\n      dup7\n        /* \"#utility.yul\":2294:2316   */\n      add\n        /* \"#utility.yul\":2274:2326   */\n      tag_32\n      jump\t// in\n    tag_64:\n        /* \"#utility.yul\":2264:2326   */\n      swap2\n      pop\n        /* \"#utility.yul\":2219:2336   */\n      pop\n        /* \"#utility.yul\":1873:2343   */\n      swap3\n      pop\n      swap3\n      swap1\n      pop\n      jump\t// out\n        /* \"#utility.yul\":2349:2464   */\n    tag_33:\n        /* \"#utility.yul\":2434:2457   */\n      tag_66\n        /* \"#utility.yul\":2451:2456   */\n      dup2\n        /* \"#utility.yul\":2434:2457   */\n      tag_30\n      jump\t// in\n    tag_66:\n        /* \"#utility.yul\":2429:2432   */\n      dup3\n        /* \"#utility.yul\":2422:2458   */\n      mstore\n        /* \"#utility.yul\":2349:2464   */\n      pop\n      pop\n      jump\t// out\n        /* \"#utility.yul\":2470:2688   */\n    tag_16:\n        /* \"#utility.yul\":2561:2565   */\n      0x00\n        /* \"#utility.yul\":2599:2601   */\n      0x20\n        /* \"#utility.yul\":2588:2597   */\n      dup3\n        /* \"#utility.yul\":2584:2602   */\n      add\n        /* \"#utility.yul\":2576:2602   */\n      swap1\n      pop\n        /* \"#utility.yul\":2612:2681   */\n      tag_68\n        /* \"#utility.yul\":2678:2679   */\n      0x00\n        /* \"#utility.yul\":2667:2676   */\n      dup4\n        /* \"#utility.yul\":2663:2680   */\n      add\n        /* \"#utility.yul\":2654:2660   */\n      dup5\n        /* \"#utility.yul\":2612:2681   */\n      tag_33\n      jump\t// in\n    tag_68:\n        /* \"#utility.yul\":2470:2688   */\n      swap3\n      swap2\n      pop\n      pop\n      jump\t// out\n        /* \"#utility.yul\":2694:2874   */\n    tag_34:\n        /* \"#utility.yul\":2742:2819   */\n      0x4e487b7100000000000000000000000000000000000000000000000000000000\n        /* \"#utility.yul\":2739:2740   */\n      0x00\n        /* \"#utility.yul\":2732:2820   */\n      mstore\n        /* \"#utility.yul\":2839:2843   */\n      0x11\n        /* \"#utility.yul\":2836:2837   */\n      0x04\n        /* \"#utility.yul\":2829:2844   */\n      mstore\n        /* \"#utility.yul\":2863:2867   */\n      0x24\n        /* \"#utility.yul\":2860:2861   */\n      0x00\n        /* \"#utility.yul\":2853:2868   */\n      revert\n        /* \"#utility.yul\":2880:3071   */\n    tag_19:\n        /* \"#utility.yul\":2920:2923   */\n      0x00\n        /* \"#utility.yul\":2939:2959   */\n      tag_71\n        /* \"#utility.yul\":2957:2958   */\n      dup3\n        /* \"#utility.yul\":2939:2959   */\n      tag_26\n      jump\t// in\n    tag_71:\n        /* \"#utility.yul\":2934:2959   */\n      swap2\n      pop\n        /* \"#utility.yul\":2973:2993   */\n      tag_72\n        /* \"#utility.yul\":2991:2992   */\n      dup4\n        /* \"#utility.yul\":2973:2993   */\n      tag_26\n      jump\t// in\n    tag_72:\n        /* \"#utility.yul\":2968:2993   */\n      swap3\n      pop\n        /* \"#utility.yul\":3016:3017   */\n      dup3\n        /* \"#utility.yul\":3013:3014   */\n      dup3\n        /* \"#utility.yul\":3009:3018   */\n      add\n        /* \"#utility.yul\":3002:3018   */\n      swap1\n      pop\n        /* \"#utility.yul\":3037:3040   */\n      dup1\n        /* \"#utility.yul\":3034:3035   */\n      dup3\n        /* \"#utility.yul\":3031:3041   */\n      gt\n        /* \"#utility.yul\":3028:3064   */\n      iszero\n      tag_73\n      jumpi\n        /* \"#utility.yul\":3044:3062   */\n      tag_74\n      tag_34\n      jump\t// in\n    tag_74:\n        /* \"#utility.yul\":3028:3064   */\n    tag_73:\n        /* \"#utility.yul\":2880:3071   */\n      swap3\n      swap2\n      pop\n      pop\n      jump\t// out\n        /* \"#utility.yul\":3077:3449   */\n    tag_22:\n        /* \"#utility.yul\":3116:3120   */\n      0x00\n        /* \"#utility.yul\":3136:3155   */\n      tag_76\n        /* \"#utility.yul\":3153:3154   */\n      dup3\n        /* \"#utility.yul\":3136:3155   */\n      tag_30\n      jump\t// in\n    tag_76:\n        /* \"#utility.yul\":3131:3155   */\n      swap2\n      pop\n        /* \"#utility.yul\":3169:3188   */\n      tag_77\n        /* \"#utility.yul\":3186:3187   */\n      dup4\n        /* \"#utility.yul\":3169:3188   */\n      tag_30\n      jump\t// in\n    tag_77:\n        /* \"#utility.yul\":3164:3188   */\n      swap3\n      pop\n        /* \"#utility.yul\":3212:3213   */\n      dup3\n        /* \"#utility.yul\":3209:3210   */\n      dup3\n        /* \"#utility.yul\":3205:3214   */\n      sub\n        /* \"#utility.yul\":3197:3214   */\n      swap1\n      pop\n        /* \"#utility.yul\":3406:3407   */\n      dup2\n        /* \"#utility.yul\":3400:3404   */\n      dup2\n        /* \"#utility.yul\":3396:3408   */\n      slt\n        /* \"#utility.yul\":3392:3393   */\n      0x00\n        /* \"#utility.yul\":3389:3390   */\n      dup5\n        /* \"#utility.yul\":3385:3394   */\n      slt\n        /* \"#utility.yul\":3381:3409   */\n      and\n        /* \"#utility.yul\":3364:3365   */\n      dup3\n        /* \"#utility.yul\":3358:3362   */\n      dup3\n        /* \"#utility.yul\":3354:3366   */\n      sgt\n        /* \"#utility.yul\":3349:3350   */\n      0x00\n        /* \"#utility.yul\":3346:3347   */\n      dup6\n        /* \"#utility.yul\":3342:3351   */\n      slt\n        /* \"#utility.yul\":3335:3352   */\n      iszero\n        /* \"#utility.yul\":3331:3367   */\n      and\n        /* \"#utility.yul\":3315:3419   */\n      or\n        /* \"#utility.yul\":3312:3442   */\n      iszero\n      tag_78\n      jumpi\n        /* \"#utility.yul\":3422:3440   */\n      tag_79\n      tag_34\n      jump\t// in\n    tag_79:\n        /* \"#utility.yul\":3312:3442   */\n    tag_78:\n        /* \"#utility.yul\":3077:3449   */\n      swap3\n      swap2\n      pop\n      pop\n      jump\t// out\n\n    auxdata: 0xa26469706673582212203c49908ee0250ac32a65ecfe0e9dc99189f0494ad7287557532985302922639c64736f6c63430008170033\n}\n",
				"bytecode": {
					"linkReferences": {},
					"object": "608060405234801561000f575f80fd5b506102ce8061001d5f395ff3fe608060405234801561000f575f80fd5b5060043610610034575f3560e01c8063771602f714610038578063adefc37b14610068575b5f80fd5b610052600480360381019061004d91906100f9565b610098565b60405161005f9190610146565b60405180910390f35b610082600480360381019061007d9190610192565b6100ad565b60405161008f91906101df565b60405180910390f35b5f81836100a59190610225565b905092915050565b5f81836100ba9190610258565b905092915050565b5f80fd5b5f819050919050565b6100d8816100c6565b81146100e2575f80fd5b50565b5f813590506100f3816100cf565b92915050565b5f806040838503121561010f5761010e6100c2565b5b5f61011c858286016100e5565b925050602061012d858286016100e5565b9150509250929050565b610140816100c6565b82525050565b5f6020820190506101595f830184610137565b92915050565b5f819050919050565b6101718161015f565b811461017b575f80fd5b50565b5f8135905061018c81610168565b92915050565b5f80604083850312156101a8576101a76100c2565b5b5f6101b58582860161017e565b92505060206101c68582860161017e565b9150509250929050565b6101d98161015f565b82525050565b5f6020820190506101f25f8301846101d0565b92915050565b7f4e487b71000000000000000000000000000000000000000000000000000000005f52601160045260245ffd5b5f61022f826100c6565b915061023a836100c6565b9250828201905080821115610252576102516101f8565b5b92915050565b5f6102628261015f565b915061026d8361015f565b925082820390508181125f8412168282135f851215161715610292576102916101f8565b5b9291505056fea26469706673582212203c49908ee0250ac32a65ecfe0e9dc99189f0494ad7287557532985302922639c64736f6c63430008170033",
					"opcodes": "PUSH1 0x80 PUSH1 0x40 MSTORE CALLVALUE DUP1 ISZERO PUSH2 0xF JUMPI PUSH0 DUP1 REVERT JUMPDEST POP PUSH2 0x2CE DUP1 PUSH2 0x1D PUSH0 CODECOPY PUSH0 RETURN INVALID PUSH1 0x80 PUSH1 0x40 MSTORE CALLVALUE DUP1 ISZERO PUSH2 0xF JUMPI PUSH0 DUP1 REVERT JUMPDEST POP PUSH1 0x4 CALLDATASIZE LT PUSH2 0x34 JUMPI PUSH0 CALLDATALOAD PUSH1 0xE0 SHR DUP1 PUSH4 0x771602F7 EQ PUSH2 0x38 JUMPI DUP1 PUSH4 0xADEFC37B EQ PUSH2 0x68 JUMPI JUMPDEST PUSH0 DUP1 REVERT JUMPDEST PUSH2 0x52 PUSH1 0x4 DUP1 CALLDATASIZE SUB DUP2 ADD SWAP1 PUSH2 0x4D SWAP2 SWAP1 PUSH2 0xF9 JUMP JUMPDEST PUSH2 0x98 JUMP JUMPDEST PUSH1 0x40 MLOAD PUSH2 0x5F SWAP2 SWAP1 PUSH2 0x146 JUMP JUMPDEST PUSH1 0x40 MLOAD DUP1 SWAP2 SUB SWAP1 RETURN JUMPDEST PUSH2 0x82 PUSH1 0x4 DUP1 CALLDATASIZE SUB DUP2 ADD SWAP1 PUSH2 0x7D SWAP2 SWAP1 PUSH2 0x192 JUMP JUMPDEST PUSH2 0xAD JUMP JUMPDEST PUSH1 0x40 MLOAD PUSH2 0x8F SWAP2 SWAP1 PUSH2 0x1DF JUMP JUMPDEST PUSH1 0x40 MLOAD DUP1 SWAP2 SUB SWAP1 RETURN JUMPDEST PUSH0 DUP2 DUP4 PUSH2 0xA5 SWAP2 SWAP1 PUSH2 0x225 JUMP JUMPDEST SWAP1 POP SWAP3 SWAP2 POP POP JUMP JUMPDEST PUSH0 DUP2 DUP4 PUSH2 0xBA SWAP2 SWAP1 PUSH2 0x258 JUMP JUMPDEST SWAP1 POP SWAP3 SWAP2 POP POP JUMP JUMPDEST PUSH0 DUP1 REVERT JUMPDEST PUSH0 DUP2 SWAP1 POP SWAP2 SWAP1 POP JUMP JUMPDEST PUSH2 0xD8 DUP2 PUSH2 0xC6 JUMP JUMPDEST DUP2 EQ PUSH2 0xE2 JUMPI PUSH0 DUP1 REVERT JUMPDEST POP JUMP JUMPDEST PUSH0 DUP2 CALLDATALOAD SWAP1 POP PUSH2 0xF3 DUP2 PUSH2 0xCF JUMP JUMPDEST SWAP3 SWAP2 POP POP JUMP JUMPDEST PUSH0 DUP1 PUSH1 0x40 DUP4 DUP6 SUB SLT ISZERO PUSH2 0x10F JUMPI PUSH2 0x10E PUSH2 0xC2 JUMP JUMPDEST JUMPDEST PUSH0 PUSH2 0x11C DUP6 DUP3 DUP7 ADD PUSH2 0xE5 JUMP JUMPDEST SWAP3 POP POP PUSH1 0x20 PUSH2 0x12D DUP6 DUP3 DUP7 ADD PUSH2 0xE5 JUMP JUMPDEST SWAP2 POP POP SWAP3 POP SWAP3 SWAP1 POP JUMP JUMPDEST PUSH2 0x140 DUP2 PUSH2 0xC6 JUMP JUMPDEST DUP3 MSTORE POP POP JUMP JUMPDEST PUSH0 PUSH1 0x20 DUP3 ADD SWAP1 POP PUSH2 0x159 PUSH0 DUP4 ADD DUP5 PUSH2 0x137 JUMP JUMPDEST SWAP3 SWAP2 POP POP JUMP JUMPDEST PUSH0 DUP2 SWAP1 POP SWAP2 SWAP1 POP JUMP JUMPDEST PUSH2 0x171 DUP2 PUSH2 0x15F JUMP JUMPDEST DUP2 EQ PUSH2 0x17B JUMPI PUSH0 DUP1 REVERT JUMPDEST POP JUMP JUMPDEST PUSH0 DUP2 CALLDATALOAD SWAP1 POP PUSH2 0x18C DUP2 PUSH2 0x168 JUMP JUMPDEST SWAP3 SWAP2 POP POP JUMP JUMPDEST PUSH0 DUP1 PUSH1 0x40 DUP4 DUP6 SUB SLT ISZERO PUSH2 0x1A8 JUMPI PUSH2 0x1A7 PUSH2 0xC2 JUMP JUMPDEST JUMPDEST PUSH0 PUSH2 0x1B5 DUP6 DUP3 DUP7 ADD PUSH2 0x17E JUMP JUMPDEST SWAP3 POP POP PUSH1 0x20 PUSH2 0x1C6 DUP6 DUP3 DUP7 ADD PUSH2 0x17E JUMP JUMPDEST SWAP2 POP POP SWAP3 POP SWAP3 SWAP1 POP JUMP JUMPDEST PUSH2 0x1D9 DUP2 PUSH2 0x15F JUMP JUMPDEST DUP3 MSTORE POP POP JUMP JUMPDEST PUSH0 PUSH1 0x20 DUP3 ADD SWAP1 POP PUSH2 0x1F2 PUSH0 DUP4 ADD DUP5 PUSH2 0x1D0 JUMP JUMPDEST SWAP3 SWAP2 POP POP JUMP JUMPDEST PUSH32 0x4E487B7100000000000000000000000000000000000000000000000000000000 PUSH0 MSTORE PUSH1 0x11 PUSH1 0x4 MSTORE PUSH1 0x24 PUSH0 REVERT JUMPDEST PUSH0 PUSH2 0x22F DUP3 PUSH2 0xC6 JUMP JUMPDEST SWAP2 POP PUSH2 0x23A DUP4 PUSH2 0xC6 JUMP JUMPDEST SWAP3 POP DUP3 DUP3 ADD SWAP1 POP DUP1 DUP3 GT ISZERO PUSH2 0x252 JUMPI PUSH2 0x251 PUSH2 0x1F8 JUMP JUMPDEST JUMPDEST SWAP3 SWAP2 POP POP JUMP JUMPDEST PUSH0 PUSH2 0x262 DUP3 PUSH2 0x15F JUMP JUMPDEST SWAP2 POP PUSH2 0x26D DUP4 PUSH2 0x15F JUMP JUMPDEST SWAP3 POP DUP3 DUP3 SUB SWAP1 POP DUP2 DUP2 SLT PUSH0 DUP5 SLT AND DUP3 DUP3 SGT PUSH0 DUP6 SLT ISZERO AND OR ISZERO PUSH2 0x292 JUMPI PUSH2 0x291 PUSH2 0x1F8 JUMP JUMPDEST JUMPDEST SWAP3 SWAP2 POP POP JUMP INVALID LOG2 PUSH5 0x6970667358 0x22 SLT KECCAK256 EXTCODECOPY 0x49 SWAP1 DUP15 0xE0 0x25 EXP 0xC3 0x2A PUSH6 0xECFE0E9DC991 DUP10 CREATE 0x49 0x4A 0xD7 0x28 PUSH22 0x57532985302922639C64736F6C634300081700330000 "
				},
				"gasEstimates": {
					"creation": {
						"codeDepositCost": "143600",
						"executionCost": "188",
						"totalCost": "143788"
					},
					"external": {
						"add(uint256,uint256)": "infinite",
						"sub(int256,int256)": "infinite"
					}
				},
				"methodIdentifiers": {
					"add(uint256,uint256)": "771602f7",
					"sub(int256,int256)": "adefc37b"
				}
			},
			"storageLayout": {
				"storage": [],
				"types": null
			},
			"userdoc": {
				"kind": "user",
				"methods": {},
				"version": 1
			}
		}
	}
}