{
	"stringBytes.sol": {
		"StringBytes": {
			"abi": [
				{
					"inputs": [
						{
							"internalType": "bytes",
							"name": "_b",
							"type": "bytes"
						}
					],
					"name": "bytesToString",
					"outputs": [
						{
							"internalType": "string",
							"name": "",
							"type": "string"
						}
					],
					"stateMutability": "pure",
					"type": "function"
				},
				{
					"inputs": [
						{
							"internalType": "bytes",
							"name": "_b",
							"type": "bytes"
						}
					],
					"name": "bytesToString2",
					"outputs": [
						{
							"internalType": "string",
							"name": "",
							"type": "string"
						}
					],
					"stateMutability": "pure",
					"type": "function"
				},
				{
					"inputs": [
						{
							"internalType": "string",
							"name": "_s",
							"type": "string"
						}
					],
					"name": "stringToBytes",
					"outputs": [
						{
							"internalType": "bytes",
							"name": "",
							"type": "bytes"
						}
					],
					"stateMutability": "pure",
					"type": "function"
				}
			],
			"devdoc": {
				"kind": "dev",
				"methods": {},
				"version": 1
			},
			"evm": {
				"assembly": "    /* \"stringBytes.sol\":57:443  contract StringBytes {... */\n  mstore(0x40, 0x80)\n  callvalue\n  dup1\n  iszero\n  tag_1\n  jumpi\n  0x00\n  dup1\n  revert\ntag_1:\n  pop\n  dataSize(sub_0)\n  dup1\n  dataOffset(sub_0)\n  0x00\n  codecopy\n  0x00\n  return\nstop\n\nsub_0: assembly {\n        /* \"stringBytes.sol\":57:443  contract StringBytes {... */\n      mstore(0x40, 0x80)\n      callvalue\n      dup1\n      iszero\n      tag_1\n      jumpi\n      0x00\n      dup1\n      revert\n    tag_1:\n      pop\n      jumpi(tag_2, lt(calldatasize, 0x04))\n      shr(0xe0, calldataload(0x00))\n      dup1\n      0x39614e4f\n      eq\n      tag_3\n      jumpi\n      dup1\n      0xbc295ca3\n      eq\n      tag_4\n      jumpi\n      dup1\n      0xe106fb4b\n      eq\n      tag_5\n      jumpi\n    tag_2:\n      0x00\n      dup1\n      revert\n        /* \"stringBytes.sol\":198:307  function bytesToString(bytes memory _b) public pure returns(string memory) {... */\n    tag_3:\n      tag_6\n      0x04\n      dup1\n      calldatasize\n      sub\n      dup2\n      add\n      swap1\n      tag_7\n      swap2\n      swap1\n      tag_8\n      jump\t// in\n    tag_7:\n      tag_9\n      jump\t// in\n    tag_6:\n      mload(0x40)\n      tag_10\n      swap2\n      swap1\n      tag_11\n      jump\t// in\n    tag_10:\n      mload(0x40)\n      dup1\n      swap2\n      sub\n      swap1\n      return\n        /* \"stringBytes.sol\":313:441  function bytesToString2(bytes memory _b) public pure returns(string memory) {... */\n    tag_4:\n      tag_12\n      0x04\n      dup1\n      calldatasize\n      sub\n      dup2\n      add\n      swap1\n      tag_13\n      swap2\n      swap1\n      tag_8\n      jump\t// in\n    tag_13:\n      tag_14\n      jump\t// in\n    tag_12:\n      mload(0x40)\n      tag_15\n      swap2\n      swap1\n      tag_11\n      jump\t// in\n    tag_15:\n      mload(0x40)\n      dup1\n      swap2\n      sub\n      swap1\n      return\n        /* \"stringBytes.sol\":84:192  function stringToBytes(string memory _s) public pure returns(bytes memory) {... */\n    tag_5:\n      tag_16\n      0x04\n      dup1\n      calldatasize\n      sub\n      dup2\n      add\n      swap1\n      tag_17\n      swap2\n      swap1\n      tag_18\n      jump\t// in\n    tag_17:\n      tag_19\n      jump\t// in\n    tag_16:\n      mload(0x40)\n      tag_20\n      swap2\n      swap1\n      tag_21\n      jump\t// in\n    tag_20:\n      mload(0x40)\n      dup1\n      swap2\n      sub\n      swap1\n      return\n        /* \"stringBytes.sol\":198:307  function bytesToString(bytes memory _b) public pure returns(string memory) {... */\n    tag_9:\n        /* \"stringBytes.sol\":258:271  string memory */\n      0x60\n        /* \"stringBytes.sol\":297:299  _b */\n      dup2\n        /* \"stringBytes.sol\":283:300  return string(_b) */\n      swap1\n      pop\n        /* \"stringBytes.sol\":198:307  function bytesToString(bytes memory _b) public pure returns(string memory) {... */\n      swap2\n      swap1\n      pop\n      jump\t// out\n        /* \"stringBytes.sol\":313:441  function bytesToString2(bytes memory _b) public pure returns(string memory) {... */\n    tag_14:\n        /* \"stringBytes.sol\":374:387  string memory */\n      0x60\n        /* \"stringBytes.sol\":430:432  _b */\n      dup2\n        /* \"stringBytes.sol\":413:433  abi.encodePacked(_b) */\n      add(0x20, mload(0x40))\n      tag_24\n      swap2\n      swap1\n      tag_25\n      jump\t// in\n    tag_24:\n      mload(0x40)\n      0x20\n      dup2\n      dup4\n      sub\n      sub\n      dup2\n      mstore\n      swap1\n      0x40\n      mstore\n        /* \"stringBytes.sol\":399:434  return string(abi.encodePacked(_b)) */\n      swap1\n      pop\n        /* \"stringBytes.sol\":313:441  function bytesToString2(bytes memory _b) public pure returns(string memory) {... */\n      swap2\n      swap1\n      pop\n      jump\t// out\n        /* \"stringBytes.sol\":84:192  function stringToBytes(string memory _s) public pure returns(bytes memory) {... */\n    tag_19:\n        /* \"stringBytes.sol\":145:157  bytes memory */\n      0x60\n        /* \"stringBytes.sol\":182:184  _s */\n      dup2\n        /* \"stringBytes.sol\":169:185  return bytes(_s) */\n      swap1\n      pop\n        /* \"stringBytes.sol\":84:192  function stringToBytes(string memory _s) public pure returns(bytes memory) {... */\n      swap2\n      swap1\n      pop\n      jump\t// out\n        /* \"#utility.yul\":7:82   */\n    tag_27:\n        /* \"#utility.yul\":40:46   */\n      0x00\n        /* \"#utility.yul\":73:75   */\n      0x40\n        /* \"#utility.yul\":67:76   */\n      mload\n        /* \"#utility.yul\":57:76   */\n      swap1\n      pop\n        /* \"#utility.yul\":7:82   */\n      swap1\n      jump\t// out\n        /* \"#utility.yul\":88:205   */\n    tag_28:\n        /* \"#utility.yul\":197:198   */\n      0x00\n        /* \"#utility.yul\":194:195   */\n      dup1\n        /* \"#utility.yul\":187:199   */\n      revert\n        /* \"#utility.yul\":211:328   */\n    tag_29:\n        /* \"#utility.yul\":320:321   */\n      0x00\n        /* \"#utility.yul\":317:318   */\n      dup1\n        /* \"#utility.yul\":310:322   */\n      revert\n        /* \"#utility.yul\":334:451   */\n    tag_30:\n        /* \"#utility.yul\":443:444   */\n      0x00\n        /* \"#utility.yul\":440:441   */\n      dup1\n        /* \"#utility.yul\":433:445   */\n      revert\n        /* \"#utility.yul\":457:574   */\n    tag_31:\n        /* \"#utility.yul\":566:567   */\n      0x00\n        /* \"#utility.yul\":563:564   */\n      dup1\n        /* \"#utility.yul\":556:568   */\n      revert\n        /* \"#utility.yul\":580:682   */\n    tag_32:\n        /* \"#utility.yul\":621:627   */\n      0x00\n        /* \"#utility.yul\":672:674   */\n      0x1f\n        /* \"#utility.yul\":668:675   */\n      not\n        /* \"#utility.yul\":663:665   */\n      0x1f\n        /* \"#utility.yul\":656:661   */\n      dup4\n        /* \"#utility.yul\":652:666   */\n      add\n        /* \"#utility.yul\":648:676   */\n      and\n        /* \"#utility.yul\":638:676   */\n      swap1\n      pop\n        /* \"#utility.yul\":580:682   */\n      swap2\n      swap1\n      pop\n      jump\t// out\n        /* \"#utility.yul\":688:868   */\n    tag_33:\n        /* \"#utility.yul\":736:813   */\n      0x4e487b7100000000000000000000000000000000000000000000000000000000\n        /* \"#utility.yul\":733:734   */\n      0x00\n        /* \"#utility.yul\":726:814   */\n      mstore\n        /* \"#utility.yul\":833:837   */\n      0x41\n        /* \"#utility.yul\":830:831   */\n      0x04\n        /* \"#utility.yul\":823:838   */\n      mstore\n        /* \"#utility.yul\":857:861   */\n      0x24\n        /* \"#utility.yul\":854:855   */\n      0x00\n        /* \"#utility.yul\":847:862   */\n      revert\n        /* \"#utility.yul\":874:1155   */\n    tag_34:\n        /* \"#utility.yul\":957:984   */\n      tag_61\n        /* \"#utility.yul\":979:983   */\n      dup3\n        /* \"#utility.yul\":957:984   */\n      tag_32\n      jump\t// in\n    tag_61:\n        /* \"#utility.yul\":949:955   */\n      dup2\n        /* \"#utility.yul\":945:985   */\n      add\n        /* \"#utility.yul\":1087:1093   */\n      dup2\n        /* \"#utility.yul\":1075:1085   */\n      dup2\n        /* \"#utility.yul\":1072:1094   */\n      lt\n        /* \"#utility.yul\":1051:1069   */\n      0xffffffffffffffff\n        /* \"#utility.yul\":1039:1049   */\n      dup3\n        /* \"#utility.yul\":1036:1070   */\n      gt\n        /* \"#utility.yul\":1033:1095   */\n      or\n        /* \"#utility.yul\":1030:1118   */\n      iszero\n      tag_62\n      jumpi\n        /* \"#utility.yul\":1098:1116   */\n      tag_63\n      tag_33\n      jump\t// in\n    tag_63:\n        /* \"#utility.yul\":1030:1118   */\n    tag_62:\n        /* \"#utility.yul\":1138:1148   */\n      dup1\n        /* \"#utility.yul\":1134:1136   */\n      0x40\n        /* \"#utility.yul\":1127:1149   */\n      mstore\n        /* \"#utility.yul\":917:1155   */\n      pop\n        /* \"#utility.yul\":874:1155   */\n      pop\n      pop\n      jump\t// out\n        /* \"#utility.yul\":1161:1290   */\n    tag_35:\n        /* \"#utility.yul\":1195:1201   */\n      0x00\n        /* \"#utility.yul\":1222:1242   */\n      tag_65\n      tag_27\n      jump\t// in\n    tag_65:\n        /* \"#utility.yul\":1212:1242   */\n      swap1\n      pop\n        /* \"#utility.yul\":1251:1284   */\n      tag_66\n        /* \"#utility.yul\":1279:1283   */\n      dup3\n        /* \"#utility.yul\":1271:1277   */\n      dup3\n        /* \"#utility.yul\":1251:1284   */\n      tag_34\n      jump\t// in\n    tag_66:\n        /* \"#utility.yul\":1161:1290   */\n      swap2\n      swap1\n      pop\n      jump\t// out\n        /* \"#utility.yul\":1296:1603   */\n    tag_36:\n        /* \"#utility.yul\":1357:1361   */\n      0x00\n        /* \"#utility.yul\":1447:1465   */\n      0xffffffffffffffff\n        /* \"#utility.yul\":1439:1445   */\n      dup3\n        /* \"#utility.yul\":1436:1466   */\n      gt\n        /* \"#utility.yul\":1433:1489   */\n      iszero\n      tag_68\n      jumpi\n        /* \"#utility.yul\":1469:1487   */\n      tag_69\n      tag_33\n      jump\t// in\n    tag_69:\n        /* \"#utility.yul\":1433:1489   */\n    tag_68:\n        /* \"#utility.yul\":1507:1536   */\n      tag_70\n        /* \"#utility.yul\":1529:1535   */\n      dup3\n        /* \"#utility.yul\":1507:1536   */\n      tag_32\n      jump\t// in\n    tag_70:\n        /* \"#utility.yul\":1499:1536   */\n      swap1\n      pop\n        /* \"#utility.yul\":1591:1595   */\n      0x20\n        /* \"#utility.yul\":1585:1589   */\n      dup2\n        /* \"#utility.yul\":1581:1596   */\n      add\n        /* \"#utility.yul\":1573:1596   */\n      swap1\n      pop\n        /* \"#utility.yul\":1296:1603   */\n      swap2\n      swap1\n      pop\n      jump\t// out\n        /* \"#utility.yul\":1609:1755   */\n    tag_37:\n        /* \"#utility.yul\":1706:1712   */\n      dup3\n        /* \"#utility.yul\":1701:1704   */\n      dup2\n        /* \"#utility.yul\":1696:1699   */\n      dup4\n        /* \"#utility.yul\":1683:1713   */\n      calldatacopy\n        /* \"#utility.yul\":1747:1748   */\n      0x00\n        /* \"#utility.yul\":1738:1744   */\n      dup4\n        /* \"#utility.yul\":1733:1736   */\n      dup4\n        /* \"#utility.yul\":1729:1745   */\n      add\n        /* \"#utility.yul\":1722:1749   */\n      mstore\n        /* \"#utility.yul\":1609:1755   */\n      pop\n      pop\n      pop\n      jump\t// out\n        /* \"#utility.yul\":1761:2184   */\n    tag_38:\n        /* \"#utility.yul\":1838:1843   */\n      0x00\n        /* \"#utility.yul\":1863:1928   */\n      tag_73\n        /* \"#utility.yul\":1879:1927   */\n      tag_74\n        /* \"#utility.yul\":1920:1926   */\n      dup5\n        /* \"#utility.yul\":1879:1927   */\n      tag_36\n      jump\t// in\n    tag_74:\n        /* \"#utility.yul\":1863:1928   */\n      tag_35\n      jump\t// in\n    tag_73:\n        /* \"#utility.yul\":1854:1928   */\n      swap1\n      pop\n        /* \"#utility.yul\":1951:1957   */\n      dup3\n        /* \"#utility.yul\":1944:1949   */\n      dup2\n        /* \"#utility.yul\":1937:1958   */\n      mstore\n        /* \"#utility.yul\":1989:1993   */\n      0x20\n        /* \"#utility.yul\":1982:1987   */\n      dup2\n        /* \"#utility.yul\":1978:1994   */\n      add\n        /* \"#utility.yul\":2027:2030   */\n      dup5\n        /* \"#utility.yul\":2018:2024   */\n      dup5\n        /* \"#utility.yul\":2013:2016   */\n      dup5\n        /* \"#utility.yul\":2009:2025   */\n      add\n        /* \"#utility.yul\":2006:2031   */\n      gt\n        /* \"#utility.yul\":2003:2115   */\n      iszero\n      tag_75\n      jumpi\n        /* \"#utility.yul\":2034:2113   */\n      tag_76\n      tag_31\n      jump\t// in\n    tag_76:\n        /* \"#utility.yul\":2003:2115   */\n    tag_75:\n        /* \"#utility.yul\":2124:2178   */\n      tag_77\n        /* \"#utility.yul\":2171:2177   */\n      dup5\n        /* \"#utility.yul\":2166:2169   */\n      dup3\n        /* \"#utility.yul\":2161:2164   */\n      dup6\n        /* \"#utility.yul\":2124:2178   */\n      tag_37\n      jump\t// in\n    tag_77:\n        /* \"#utility.yul\":1844:2184   */\n      pop\n        /* \"#utility.yul\":1761:2184   */\n      swap4\n      swap3\n      pop\n      pop\n      pop\n      jump\t// out\n        /* \"#utility.yul\":2203:2541   */\n    tag_39:\n        /* \"#utility.yul\":2258:2263   */\n      0x00\n        /* \"#utility.yul\":2307:2310   */\n      dup3\n        /* \"#utility.yul\":2300:2304   */\n      0x1f\n        /* \"#utility.yul\":2292:2298   */\n      dup4\n        /* \"#utility.yul\":2288:2305   */\n      add\n        /* \"#utility.yul\":2284:2311   */\n      slt\n        /* \"#utility.yul\":2274:2396   */\n      tag_79\n      jumpi\n        /* \"#utility.yul\":2315:2394   */\n      tag_80\n      tag_30\n      jump\t// in\n    tag_80:\n        /* \"#utility.yul\":2274:2396   */\n    tag_79:\n        /* \"#utility.yul\":2432:2438   */\n      dup2\n        /* \"#utility.yul\":2419:2439   */\n      calldataload\n        /* \"#utility.yul\":2457:2535   */\n      tag_81\n        /* \"#utility.yul\":2531:2534   */\n      dup5\n        /* \"#utility.yul\":2523:2529   */\n      dup3\n        /* \"#utility.yul\":2516:2520   */\n      0x20\n        /* \"#utility.yul\":2508:2514   */\n      dup7\n        /* \"#utility.yul\":2504:2521   */\n      add\n        /* \"#utility.yul\":2457:2535   */\n      tag_38\n      jump\t// in\n    tag_81:\n        /* \"#utility.yul\":2448:2535   */\n      swap2\n      pop\n        /* \"#utility.yul\":2264:2541   */\n      pop\n        /* \"#utility.yul\":2203:2541   */\n      swap3\n      swap2\n      pop\n      pop\n      jump\t// out\n        /* \"#utility.yul\":2547:3054   */\n    tag_8:\n        /* \"#utility.yul\":2615:2621   */\n      0x00\n        /* \"#utility.yul\":2664:2666   */\n      0x20\n        /* \"#utility.yul\":2652:2661   */\n      dup3\n        /* \"#utility.yul\":2643:2650   */\n      dup5\n        /* \"#utility.yul\":2639:2662   */\n      sub\n        /* \"#utility.yul\":2635:2667   */\n      slt\n        /* \"#utility.yul\":2632:2751   */\n      iszero\n      tag_83\n      jumpi\n        /* \"#utility.yul\":2670:2749   */\n      tag_84\n      tag_28\n      jump\t// in\n    tag_84:\n        /* \"#utility.yul\":2632:2751   */\n    tag_83:\n        /* \"#utility.yul\":2818:2819   */\n      0x00\n        /* \"#utility.yul\":2807:2816   */\n      dup3\n        /* \"#utility.yul\":2803:2820   */\n      add\n        /* \"#utility.yul\":2790:2821   */\n      calldataload\n        /* \"#utility.yul\":2848:2866   */\n      0xffffffffffffffff\n        /* \"#utility.yul\":2840:2846   */\n      dup2\n        /* \"#utility.yul\":2837:2867   */\n      gt\n        /* \"#utility.yul\":2834:2951   */\n      iszero\n      tag_85\n      jumpi\n        /* \"#utility.yul\":2870:2949   */\n      tag_86\n      tag_29\n      jump\t// in\n    tag_86:\n        /* \"#utility.yul\":2834:2951   */\n    tag_85:\n        /* \"#utility.yul\":2975:3037   */\n      tag_87\n        /* \"#utility.yul\":3029:3036   */\n      dup5\n        /* \"#utility.yul\":3020:3026   */\n      dup3\n        /* \"#utility.yul\":3009:3018   */\n      dup6\n        /* \"#utility.yul\":3005:3027   */\n      add\n        /* \"#utility.yul\":2975:3037   */\n      tag_39\n      jump\t// in\n    tag_87:\n        /* \"#utility.yul\":2965:3037   */\n      swap2\n      pop\n        /* \"#utility.yul\":2761:3047   */\n      pop\n        /* \"#utility.yul\":2547:3054   */\n      swap3\n      swap2\n      pop\n      pop\n      jump\t// out\n        /* \"#utility.yul\":3060:3159   */\n    tag_40:\n        /* \"#utility.yul\":3112:3118   */\n      0x00\n        /* \"#utility.yul\":3146:3151   */\n      dup2\n        /* \"#utility.yul\":3140:3152   */\n      mload\n        /* \"#utility.yul\":3130:3152   */\n      swap1\n      pop\n        /* \"#utility.yul\":3060:3159   */\n      swap2\n      swap1\n      pop\n      jump\t// out\n        /* \"#utility.yul\":3165:3334   */\n    tag_41:\n        /* \"#utility.yul\":3249:3260   */\n      0x00\n        /* \"#utility.yul\":3283:3289   */\n      dup3\n        /* \"#utility.yul\":3278:3281   */\n      dup3\n        /* \"#utility.yul\":3271:3290   */\n      mstore\n        /* \"#utility.yul\":3323:3327   */\n      0x20\n        /* \"#utility.yul\":3318:3321   */\n      dup3\n        /* \"#utility.yul\":3314:3328   */\n      add\n        /* \"#utility.yul\":3299:3328   */\n      swap1\n      pop\n        /* \"#utility.yul\":3165:3334   */\n      swap3\n      swap2\n      pop\n      pop\n      jump\t// out\n        /* \"#utility.yul\":3340:3586   */\n    tag_42:\n        /* \"#utility.yul\":3421:3422   */\n      0x00\n        /* \"#utility.yul\":3431:3544   */\n    tag_91:\n        /* \"#utility.yul\":3445:3451   */\n      dup4\n        /* \"#utility.yul\":3442:3443   */\n      dup2\n        /* \"#utility.yul\":3439:3452   */\n      lt\n        /* \"#utility.yul\":3431:3544   */\n      iszero\n      tag_93\n      jumpi\n        /* \"#utility.yul\":3530:3531   */\n      dup1\n        /* \"#utility.yul\":3525:3528   */\n      dup3\n        /* \"#utility.yul\":3521:3532   */\n      add\n        /* \"#utility.yul\":3515:3533   */\n      mload\n        /* \"#utility.yul\":3511:3512   */\n      dup2\n        /* \"#utility.yul\":3506:3509   */\n      dup5\n        /* \"#utility.yul\":3502:3513   */\n      add\n        /* \"#utility.yul\":3495:3534   */\n      mstore\n        /* \"#utility.yul\":3467:3469   */\n      0x20\n        /* \"#utility.yul\":3464:3465   */\n      dup2\n        /* \"#utility.yul\":3460:3470   */\n      add\n        /* \"#utility.yul\":3455:3470   */\n      swap1\n      pop\n        /* \"#utility.yul\":3431:3544   */\n      jump(tag_91)\n    tag_93:\n        /* \"#utility.yul\":3578:3579   */\n      0x00\n        /* \"#utility.yul\":3569:3575   */\n      dup5\n        /* \"#utility.yul\":3564:3567   */\n      dup5\n        /* \"#utility.yul\":3560:3576   */\n      add\n        /* \"#utility.yul\":3553:3580   */\n      mstore\n        /* \"#utility.yul\":3402:3586   */\n      pop\n        /* \"#utility.yul\":3340:3586   */\n      pop\n      pop\n      pop\n      jump\t// out\n        /* \"#utility.yul\":3592:3969   */\n    tag_43:\n        /* \"#utility.yul\":3680:3683   */\n      0x00\n        /* \"#utility.yul\":3708:3747   */\n      tag_95\n        /* \"#utility.yul\":3741:3746   */\n      dup3\n        /* \"#utility.yul\":3708:3747   */\n      tag_40\n      jump\t// in\n    tag_95:\n        /* \"#utility.yul\":3763:3834   */\n      tag_96\n        /* \"#utility.yul\":3827:3833   */\n      dup2\n        /* \"#utility.yul\":3822:3825   */\n      dup6\n        /* \"#utility.yul\":3763:3834   */\n      tag_41\n      jump\t// in\n    tag_96:\n        /* \"#utility.yul\":3756:3834   */\n      swap4\n      pop\n        /* \"#utility.yul\":3843:3908   */\n      tag_97\n        /* \"#utility.yul\":3901:3907   */\n      dup2\n        /* \"#utility.yul\":3896:3899   */\n      dup6\n        /* \"#utility.yul\":3889:3893   */\n      0x20\n        /* \"#utility.yul\":3882:3887   */\n      dup7\n        /* \"#utility.yul\":3878:3894   */\n      add\n        /* \"#utility.yul\":3843:3908   */\n      tag_42\n      jump\t// in\n    tag_97:\n        /* \"#utility.yul\":3933:3962   */\n      tag_98\n        /* \"#utility.yul\":3955:3961   */\n      dup2\n        /* \"#utility.yul\":3933:3962   */\n      tag_32\n      jump\t// in\n    tag_98:\n        /* \"#utility.yul\":3928:3931   */\n      dup5\n        /* \"#utility.yul\":3924:3963   */\n      add\n        /* \"#utility.yul\":3917:3963   */\n      swap2\n      pop\n        /* \"#utility.yul\":3684:3969   */\n      pop\n        /* \"#utility.yul\":3592:3969   */\n      swap3\n      swap2\n      pop\n      pop\n      jump\t// out\n        /* \"#utility.yul\":3975:4288   */\n    tag_11:\n        /* \"#utility.yul\":4088:4092   */\n      0x00\n        /* \"#utility.yul\":4126:4128   */\n      0x20\n        /* \"#utility.yul\":4115:4124   */\n      dup3\n        /* \"#utility.yul\":4111:4129   */\n      add\n        /* \"#utility.yul\":4103:4129   */\n      swap1\n      pop\n        /* \"#utility.yul\":4175:4184   */\n      dup2\n        /* \"#utility.yul\":4169:4173   */\n      dup2\n        /* \"#utility.yul\":4165:4185   */\n      sub\n        /* \"#utility.yul\":4161:4162   */\n      0x00\n        /* \"#utility.yul\":4150:4159   */\n      dup4\n        /* \"#utility.yul\":4146:4163   */\n      add\n        /* \"#utility.yul\":4139:4186   */\n      mstore\n        /* \"#utility.yul\":4203:4281   */\n      tag_100\n        /* \"#utility.yul\":4276:4280   */\n      dup2\n        /* \"#utility.yul\":4267:4273   */\n      dup5\n        /* \"#utility.yul\":4203:4281   */\n      tag_43\n      jump\t// in\n    tag_100:\n        /* \"#utility.yul\":4195:4281   */\n      swap1\n      pop\n        /* \"#utility.yul\":3975:4288   */\n      swap3\n      swap2\n      pop\n      pop\n      jump\t// out\n        /* \"#utility.yul\":4294:4602   */\n    tag_44:\n        /* \"#utility.yul\":4356:4360   */\n      0x00\n        /* \"#utility.yul\":4446:4464   */\n      0xffffffffffffffff\n        /* \"#utility.yul\":4438:4444   */\n      dup3\n        /* \"#utility.yul\":4435:4465   */\n      gt\n        /* \"#utility.yul\":4432:4488   */\n      iszero\n      tag_102\n      jumpi\n        /* \"#utility.yul\":4468:4486   */\n      tag_103\n      tag_33\n      jump\t// in\n    tag_103:\n        /* \"#utility.yul\":4432:4488   */\n    tag_102:\n        /* \"#utility.yul\":4506:4535   */\n      tag_104\n        /* \"#utility.yul\":4528:4534   */\n      dup3\n        /* \"#utility.yul\":4506:4535   */\n      tag_32\n      jump\t// in\n    tag_104:\n        /* \"#utility.yul\":4498:4535   */\n      swap1\n      pop\n        /* \"#utility.yul\":4590:4594   */\n      0x20\n        /* \"#utility.yul\":4584:4588   */\n      dup2\n        /* \"#utility.yul\":4580:4595   */\n      add\n        /* \"#utility.yul\":4572:4595   */\n      swap1\n      pop\n        /* \"#utility.yul\":4294:4602   */\n      swap2\n      swap1\n      pop\n      jump\t// out\n        /* \"#utility.yul\":4608:5033   */\n    tag_45:\n        /* \"#utility.yul\":4686:4691   */\n      0x00\n        /* \"#utility.yul\":4711:4777   */\n      tag_106\n        /* \"#utility.yul\":4727:4776   */\n      tag_107\n        /* \"#utility.yul\":4769:4775   */\n      dup5\n        /* \"#utility.yul\":4727:4776   */\n      tag_44\n      jump\t// in\n    tag_107:\n        /* \"#utility.yul\":4711:4777   */\n      tag_35\n      jump\t// in\n    tag_106:\n        /* \"#utility.yul\":4702:4777   */\n      swap1\n      pop\n        /* \"#utility.yul\":4800:4806   */\n      dup3\n        /* \"#utility.yul\":4793:4798   */\n      dup2\n        /* \"#utility.yul\":4786:4807   */\n      mstore\n        /* \"#utility.yul\":4838:4842   */\n      0x20\n        /* \"#utility.yul\":4831:4836   */\n      dup2\n        /* \"#utility.yul\":4827:4843   */\n      add\n        /* \"#utility.yul\":4876:4879   */\n      dup5\n        /* \"#utility.yul\":4867:4873   */\n      dup5\n        /* \"#utility.yul\":4862:4865   */\n      dup5\n        /* \"#utility.yul\":4858:4874   */\n      add\n        /* \"#utility.yul\":4855:4880   */\n      gt\n        /* \"#utility.yul\":4852:4964   */\n      iszero\n      tag_108\n      jumpi\n        /* \"#utility.yul\":4883:4962   */\n      tag_109\n      tag_31\n      jump\t// in\n    tag_109:\n        /* \"#utility.yul\":4852:4964   */\n    tag_108:\n        /* \"#utility.yul\":4973:5027   */\n      tag_110\n        /* \"#utility.yul\":5020:5026   */\n      dup5\n        /* \"#utility.yul\":5015:5018   */\n      dup3\n        /* \"#utility.yul\":5010:5013   */\n      dup6\n        /* \"#utility.yul\":4973:5027   */\n      tag_37\n      jump\t// in\n    tag_110:\n        /* \"#utility.yul\":4692:5033   */\n      pop\n        /* \"#utility.yul\":4608:5033   */\n      swap4\n      swap3\n      pop\n      pop\n      pop\n      jump\t// out\n        /* \"#utility.yul\":5053:5393   */\n    tag_46:\n        /* \"#utility.yul\":5109:5114   */\n      0x00\n        /* \"#utility.yul\":5158:5161   */\n      dup3\n        /* \"#utility.yul\":5151:5155   */\n      0x1f\n        /* \"#utility.yul\":5143:5149   */\n      dup4\n        /* \"#utility.yul\":5139:5156   */\n      add\n        /* \"#utility.yul\":5135:5162   */\n      slt\n        /* \"#utility.yul\":5125:5247   */\n      tag_112\n      jumpi\n        /* \"#utility.yul\":5166:5245   */\n      tag_113\n      tag_30\n      jump\t// in\n    tag_113:\n        /* \"#utility.yul\":5125:5247   */\n    tag_112:\n        /* \"#utility.yul\":5283:5289   */\n      dup2\n        /* \"#utility.yul\":5270:5290   */\n      calldataload\n        /* \"#utility.yul\":5308:5387   */\n      tag_114\n        /* \"#utility.yul\":5383:5386   */\n      dup5\n        /* \"#utility.yul\":5375:5381   */\n      dup3\n        /* \"#utility.yul\":5368:5372   */\n      0x20\n        /* \"#utility.yul\":5360:5366   */\n      dup7\n        /* \"#utility.yul\":5356:5373   */\n      add\n        /* \"#utility.yul\":5308:5387   */\n      tag_45\n      jump\t// in\n    tag_114:\n        /* \"#utility.yul\":5299:5387   */\n      swap2\n      pop\n        /* \"#utility.yul\":5115:5393   */\n      pop\n        /* \"#utility.yul\":5053:5393   */\n      swap3\n      swap2\n      pop\n      pop\n      jump\t// out\n        /* \"#utility.yul\":5399:5908   */\n    tag_18:\n        /* \"#utility.yul\":5468:5474   */\n      0x00\n        /* \"#utility.yul\":5517:5519   */\n      0x20\n        /* \"#utility.yul\":5505:5514   */\n      dup3\n        /* \"#utility.yul\":5496:5503   */\n      dup5\n        /* \"#utility.yul\":5492:5515   */\n      sub\n        /* \"#utility.yul\":5488:5520   */\n      slt\n        /* \"#utility.yul\":5485:5604   */\n      iszero\n      tag_116\n      jumpi\n        /* \"#utility.yul\":5523:5602   */\n      tag_117\n      tag_28\n      jump\t// in\n    tag_117:\n        /* \"#utility.yul\":5485:5604   */\n    tag_116:\n        /* \"#utility.yul\":5671:5672   */\n      0x00\n        /* \"#utility.yul\":5660:5669   */\n      dup3\n        /* \"#utility.yul\":5656:5673   */\n      add\n        /* \"#utility.yul\":5643:5674   */\n      calldataload\n        /* \"#utility.yul\":5701:5719   */\n      0xffffffffffffffff\n        /* \"#utility.yul\":5693:5699   */\n      dup2\n        /* \"#utility.yul\":5690:5720   */\n      gt\n        /* \"#utility.yul\":5687:5804   */\n      iszero\n      tag_118\n      jumpi\n        /* \"#utility.yul\":5723:5802   */\n      tag_119\n      tag_29\n      jump\t// in\n    tag_119:\n        /* \"#utility.yul\":5687:5804   */\n    tag_118:\n        /* \"#utility.yul\":5828:5891   */\n      tag_120\n        /* \"#utility.yul\":5883:5890   */\n      dup5\n        /* \"#utility.yul\":5874:5880   */\n      dup3\n        /* \"#utility.yul\":5863:5872   */\n      dup6\n        /* \"#utility.yul\":5859:5881   */\n      add\n        /* \"#utility.yul\":5828:5891   */\n      tag_46\n      jump\t// in\n    tag_120:\n        /* \"#utility.yul\":5818:5891   */\n      swap2\n      pop\n        /* \"#utility.yul\":5614:5901   */\n      pop\n        /* \"#utility.yul\":5399:5908   */\n      swap3\n      swap2\n      pop\n      pop\n      jump\t// out\n        /* \"#utility.yul\":5914:6012   */\n    tag_47:\n        /* \"#utility.yul\":5965:5971   */\n      0x00\n        /* \"#utility.yul\":5999:6004   */\n      dup2\n        /* \"#utility.yul\":5993:6005   */\n      mload\n        /* \"#utility.yul\":5983:6005   */\n      swap1\n      pop\n        /* \"#utility.yul\":5914:6012   */\n      swap2\n      swap1\n      pop\n      jump\t// out\n        /* \"#utility.yul\":6018:6186   */\n    tag_48:\n        /* \"#utility.yul\":6101:6112   */\n      0x00\n        /* \"#utility.yul\":6135:6141   */\n      dup3\n        /* \"#utility.yul\":6130:6133   */\n      dup3\n        /* \"#utility.yul\":6123:6142   */\n      mstore\n        /* \"#utility.yul\":6175:6179   */\n      0x20\n        /* \"#utility.yul\":6170:6173   */\n      dup3\n        /* \"#utility.yul\":6166:6180   */\n      add\n        /* \"#utility.yul\":6151:6180   */\n      swap1\n      pop\n        /* \"#utility.yul\":6018:6186   */\n      swap3\n      swap2\n      pop\n      pop\n      jump\t// out\n        /* \"#utility.yul\":6192:6565   */\n    tag_49:\n        /* \"#utility.yul\":6278:6281   */\n      0x00\n        /* \"#utility.yul\":6306:6344   */\n      tag_124\n        /* \"#utility.yul\":6338:6343   */\n      dup3\n        /* \"#utility.yul\":6306:6344   */\n      tag_47\n      jump\t// in\n    tag_124:\n        /* \"#utility.yul\":6360:6430   */\n      tag_125\n        /* \"#utility.yul\":6423:6429   */\n      dup2\n        /* \"#utility.yul\":6418:6421   */\n      dup6\n        /* \"#utility.yul\":6360:6430   */\n      tag_48\n      jump\t// in\n    tag_125:\n        /* \"#utility.yul\":6353:6430   */\n      swap4\n      pop\n        /* \"#utility.yul\":6439:6504   */\n      tag_126\n        /* \"#utility.yul\":6497:6503   */\n      dup2\n        /* \"#utility.yul\":6492:6495   */\n      dup6\n        /* \"#utility.yul\":6485:6489   */\n      0x20\n        /* \"#utility.yul\":6478:6483   */\n      dup7\n        /* \"#utility.yul\":6474:6490   */\n      add\n        /* \"#utility.yul\":6439:6504   */\n      tag_42\n      jump\t// in\n    tag_126:\n        /* \"#utility.yul\":6529:6558   */\n      tag_127\n        /* \"#utility.yul\":6551:6557   */\n      dup2\n        /* \"#utility.yul\":6529:6558   */\n      tag_32\n      jump\t// in\n    tag_127:\n        /* \"#utility.yul\":6524:6527   */\n      dup5\n        /* \"#utility.yul\":6520:6559   */\n      add\n        /* \"#utility.yul\":6513:6559   */\n      swap2\n      pop\n        /* \"#utility.yul\":6282:6565   */\n      pop\n        /* \"#utility.yul\":6192:6565   */\n      swap3\n      swap2\n      pop\n      pop\n      jump\t// out\n        /* \"#utility.yul\":6571:6880   */\n    tag_21:\n        /* \"#utility.yul\":6682:6686   */\n      0x00\n        /* \"#utility.yul\":6720:6722   */\n      0x20\n        /* \"#utility.yul\":6709:6718   */\n      dup3\n        /* \"#utility.yul\":6705:6723   */\n      add\n        /* \"#utility.yul\":6697:6723   */\n      swap1\n      pop\n        /* \"#utility.yul\":6769:6778   */\n      dup2\n        /* \"#utility.yul\":6763:6767   */\n      dup2\n        /* \"#utility.yul\":6759:6779   */\n      sub\n        /* \"#utility.yul\":6755:6756   */\n      0x00\n        /* \"#utility.yul\":6744:6753   */\n      dup4\n        /* \"#utility.yul\":6740:6757   */\n      add\n        /* \"#utility.yul\":6733:6780   */\n      mstore\n        /* \"#utility.yul\":6797:6873   */\n      tag_129\n        /* \"#utility.yul\":6868:6872   */\n      dup2\n        /* \"#utility.yul\":6859:6865   */\n      dup5\n        /* \"#utility.yul\":6797:6873   */\n      tag_49\n      jump\t// in\n    tag_129:\n        /* \"#utility.yul\":6789:6873   */\n      swap1\n      pop\n        /* \"#utility.yul\":6571:6880   */\n      swap3\n      swap2\n      pop\n      pop\n      jump\t// out\n        /* \"#utility.yul\":6886:7033   */\n    tag_50:\n        /* \"#utility.yul\":6987:6998   */\n      0x00\n        /* \"#utility.yul\":7024:7027   */\n      dup2\n        /* \"#utility.yul\":7009:7027   */\n      swap1\n      pop\n        /* \"#utility.yul\":6886:7033   */\n      swap3\n      swap2\n      pop\n      pop\n      jump\t// out\n        /* \"#utility.yul\":7039:7425   */\n    tag_51:\n        /* \"#utility.yul\":7143:7146   */\n      0x00\n        /* \"#utility.yul\":7171:7209   */\n      tag_132\n        /* \"#utility.yul\":7203:7208   */\n      dup3\n        /* \"#utility.yul\":7171:7209   */\n      tag_47\n      jump\t// in\n    tag_132:\n        /* \"#utility.yul\":7225:7313   */\n      tag_133\n        /* \"#utility.yul\":7306:7312   */\n      dup2\n        /* \"#utility.yul\":7301:7304   */\n      dup6\n        /* \"#utility.yul\":7225:7313   */\n      tag_50\n      jump\t// in\n    tag_133:\n        /* \"#utility.yul\":7218:7313   */\n      swap4\n      pop\n        /* \"#utility.yul\":7322:7387   */\n      tag_134\n        /* \"#utility.yul\":7380:7386   */\n      dup2\n        /* \"#utility.yul\":7375:7378   */\n      dup6\n        /* \"#utility.yul\":7368:7372   */\n      0x20\n        /* \"#utility.yul\":7361:7366   */\n      dup7\n        /* \"#utility.yul\":7357:7373   */\n      add\n        /* \"#utility.yul\":7322:7387   */\n      tag_42\n      jump\t// in\n    tag_134:\n        /* \"#utility.yul\":7412:7418   */\n      dup1\n        /* \"#utility.yul\":7407:7410   */\n      dup5\n        /* \"#utility.yul\":7403:7419   */\n      add\n        /* \"#utility.yul\":7396:7419   */\n      swap2\n      pop\n        /* \"#utility.yul\":7147:7425   */\n      pop\n        /* \"#utility.yul\":7039:7425   */\n      swap3\n      swap2\n      pop\n      pop\n      jump\t// out\n        /* \"#utility.yul\":7431:7702   */\n    tag_25:\n        /* \"#utility.yul\":7561:7564   */\n      0x00\n        /* \"#utility.yul\":7583:7676   */\n      tag_136\n        /* \"#utility.yul\":7672:7675   */\n      dup3\n        /* \"#utility.yul\":7663:7669   */\n      dup5\n        /* \"#utility.yul\":7583:7676   */\n      tag_51\n      jump\t// in\n    tag_136:\n        /* \"#utility.yul\":7576:7676   */\n      swap2\n      pop\n        /* \"#utility.yul\":7693:7696   */\n      dup2\n        /* \"#utility.yul\":7686:7696   */\n      swap1\n      pop\n        /* \"#utility.yul\":7431:7702   */\n      swap3\n      swap2\n      pop\n      pop\n      jump\t// out\n\n    auxdata: 0xa264697066735822122034741a3bb908917d694cfce5fb252e6d5f288e17bab37e759844eded006a819064736f6c63430008170033\n}\n",
				"bytecode": {
					"linkReferences": {},
					"object": "608060405234801561000f575f80fd5b5061051b8061001d5f395ff3fe608060405234801561000f575f80fd5b506004361061003f575f3560e01c806339614e4f14610043578063bc295ca314610073578063e106fb4b146100a3575b5f80fd5b61005d6004803603810190610058919061025d565b6100d3565b60405161006a919061031e565b60405180910390f35b61008d6004803603810190610088919061025d565b6100dd565b60405161009a919061031e565b60405180910390f35b6100bd60048036038101906100b891906103dc565b610106565b6040516100ca9190610475565b60405180910390f35b6060819050919050565b6060816040516020016100f091906104cf565b6040516020818303038152906040529050919050565b6060819050919050565b5f604051905090565b5f80fd5b5f80fd5b5f80fd5b5f80fd5b5f601f19601f8301169050919050565b7f4e487b71000000000000000000000000000000000000000000000000000000005f52604160045260245ffd5b61016f82610129565b810181811067ffffffffffffffff8211171561018e5761018d610139565b5b80604052505050565b5f6101a0610110565b90506101ac8282610166565b919050565b5f67ffffffffffffffff8211156101cb576101ca610139565b5b6101d482610129565b9050602081019050919050565b828183375f83830152505050565b5f6102016101fc846101b1565b610197565b90508281526020810184848401111561021d5761021c610125565b5b6102288482856101e1565b509392505050565b5f82601f83011261024457610243610121565b5b81356102548482602086016101ef565b91505092915050565b5f6020828403121561027257610271610119565b5b5f82013567ffffffffffffffff81111561028f5761028e61011d565b5b61029b84828501610230565b91505092915050565b5f81519050919050565b5f82825260208201905092915050565b5f5b838110156102db5780820151818401526020810190506102c0565b5f8484015250505050565b5f6102f0826102a4565b6102fa81856102ae565b935061030a8185602086016102be565b61031381610129565b840191505092915050565b5f6020820190508181035f83015261033681846102e6565b905092915050565b5f67ffffffffffffffff82111561035857610357610139565b5b61036182610129565b9050602081019050919050565b5f61038061037b8461033e565b610197565b90508281526020810184848401111561039c5761039b610125565b5b6103a78482856101e1565b509392505050565b5f82601f8301126103c3576103c2610121565b5b81356103d384826020860161036e565b91505092915050565b5f602082840312156103f1576103f0610119565b5b5f82013567ffffffffffffffff81111561040e5761040d61011d565b5b61041a848285016103af565b91505092915050565b5f81519050919050565b5f82825260208201905092915050565b5f61044782610423565b610451818561042d565b93506104618185602086016102be565b61046a81610129565b840191505092915050565b5f6020820190508181035f83015261048d818461043d565b905092915050565b5f81905092915050565b5f6104a982610423565b6104b38185610495565b93506104c38185602086016102be565b80840191505092915050565b5f6104da828461049f565b91508190509291505056fea264697066735822122034741a3bb908917d694cfce5fb252e6d5f288e17bab37e759844eded006a819064736f6c63430008170033",
					"opcodes": "PUSH1 0x80 PUSH1 0x40 MSTORE CALLVALUE DUP1 ISZERO PUSH2 0xF JUMPI PUSH0 DUP1 REVERT JUMPDEST POP PUSH2 0x51B DUP1 PUSH2 0x1D PUSH0 CODECOPY PUSH0 RETURN INVALID PUSH1 0x80 PUSH1 0x40 MSTORE CALLVALUE DUP1 ISZERO PUSH2 0xF JUMPI PUSH0 DUP1 REVERT JUMPDEST POP PUSH1 0x4 CALLDATASIZE LT PUSH2 0x3F JUMPI PUSH0 CALLDATALOAD PUSH1 0xE0 SHR DUP1 PUSH4 0x39614E4F EQ PUSH2 0x43 JUMPI DUP1 PUSH4 0xBC295CA3 EQ PUSH2 0x73 JUMPI DUP1 PUSH4 0xE106FB4B EQ PUSH2 0xA3 JUMPI JUMPDEST PUSH0 DUP1 REVERT JUMPDEST PUSH2 0x5D PUSH1 0x4 DUP1 CALLDATASIZE SUB DUP2 ADD SWAP1 PUSH2 0x58 SWAP2 SWAP1 PUSH2 0x25D JUMP JUMPDEST PUSH2 0xD3 JUMP JUMPDEST PUSH1 0x40 MLOAD PUSH2 0x6A SWAP2 SWAP1 PUSH2 0x31E JUMP JUMPDEST PUSH1 0x40 MLOAD DUP1 SWAP2 SUB SWAP1 RETURN JUMPDEST PUSH2 0x8D PUSH1 0x4 DUP1 CALLDATASIZE SUB DUP2 ADD SWAP1 PUSH2 0x88 SWAP2 SWAP1 PUSH2 0x25D JUMP JUMPDEST PUSH2 0xDD JUMP JUMPDEST PUSH1 0x40 MLOAD PUSH2 0x9A SWAP2 SWAP1 PUSH2 0x31E JUMP JUMPDEST PUSH1 0x40 MLOAD DUP1 SWAP2 SUB SWAP1 RETURN JUMPDEST PUSH2 0xBD PUSH1 0x4 DUP1 CALLDATASIZE SUB DUP2 ADD SWAP1 PUSH2 0xB8 SWAP2 SWAP1 PUSH2 0x3DC JUMP JUMPDEST PUSH2 0x106 JUMP JUMPDEST PUSH1 0x40 MLOAD PUSH2 0xCA SWAP2 SWAP1 PUSH2 0x475 JUMP JUMPDEST PUSH1 0x40 MLOAD DUP1 SWAP2 SUB SWAP1 RETURN JUMPDEST PUSH1 0x60 DUP2 SWAP1 POP SWAP2 SWAP1 POP JUMP JUMPDEST PUSH1 0x60 DUP2 PUSH1 0x40 MLOAD PUSH1 0x20 ADD PUSH2 0xF0 SWAP2 SWAP1 PUSH2 0x4CF JUMP JUMPDEST PUSH1 0x40 MLOAD PUSH1 0x20 DUP2 DUP4 SUB SUB DUP2 MSTORE SWAP1 PUSH1 0x40 MSTORE SWAP1 POP SWAP2 SWAP1 POP JUMP JUMPDEST PUSH1 0x60 DUP2 SWAP1 POP SWAP2 SWAP1 POP JUMP JUMPDEST PUSH0 PUSH1 0x40 MLOAD SWAP1 POP SWAP1 JUMP JUMPDEST PUSH0 DUP1 REVERT JUMPDEST PUSH0 DUP1 REVERT JUMPDEST PUSH0 DUP1 REVERT JUMPDEST PUSH0 DUP1 REVERT JUMPDEST PUSH0 PUSH1 0x1F NOT PUSH1 0x1F DUP4 ADD AND SWAP1 POP SWAP2 SWAP1 POP JUMP JUMPDEST PUSH32 0x4E487B7100000000000000000000000000000000000000000000000000000000 PUSH0 MSTORE PUSH1 0x41 PUSH1 0x4 MSTORE PUSH1 0x24 PUSH0 REVERT JUMPDEST PUSH2 0x16F DUP3 PUSH2 0x129 JUMP JUMPDEST DUP2 ADD DUP2 DUP2 LT PUSH8 0xFFFFFFFFFFFFFFFF DUP3 GT OR ISZERO PUSH2 0x18E JUMPI PUSH2 0x18D PUSH2 0x139 JUMP JUMPDEST JUMPDEST DUP1 PUSH1 0x40 MSTORE POP POP POP JUMP JUMPDEST PUSH0 PUSH2 0x1A0 PUSH2 0x110 JUMP JUMPDEST SWAP1 POP PUSH2 0x1AC DUP3 DUP3 PUSH2 0x166 JUMP JUMPDEST SWAP2 SWAP1 POP JUMP JUMPDEST PUSH0 PUSH8 0xFFFFFFFFFFFFFFFF DUP3 GT ISZERO PUSH2 0x1CB JUMPI PUSH2 0x1CA PUSH2 0x139 JUMP JUMPDEST JUMPDEST PUSH2 0x1D4 DUP3 PUSH2 0x129 JUMP JUMPDEST SWAP1 POP PUSH1 0x20 DUP2 ADD SWAP1 POP SWAP2 SWAP1 POP JUMP JUMPDEST DUP3 DUP2 DUP4 CALLDATACOPY PUSH0 DUP4 DUP4 ADD MSTORE POP POP POP JUMP JUMPDEST PUSH0 PUSH2 0x201 PUSH2 0x1FC DUP5 PUSH2 0x1B1 JUMP JUMPDEST PUSH2 0x197 JUMP JUMPDEST SWAP1 POP DUP3 DUP2 MSTORE PUSH1 0x20 DUP2 ADD DUP5 DUP5 DUP5 ADD GT ISZERO PUSH2 0x21D JUMPI PUSH2 0x21C PUSH2 0x125 JUMP JUMPDEST JUMPDEST PUSH2 0x228 DUP5 DUP3 DUP6 PUSH2 0x1E1 JUMP JUMPDEST POP SWAP4 SWAP3 POP POP POP JUMP JUMPDEST PUSH0 DUP3 PUSH1 0x1F DUP4 ADD SLT PUSH2 0x244 JUMPI PUSH2 0x243 PUSH2 0x121 JUMP JUMPDEST JUMPDEST DUP2 CALLDATALOAD PUSH2 0x254 DUP5 DUP3 PUSH1 0x20 DUP7 ADD PUSH2 0x1EF JUMP JUMPDEST SWAP2 POP POP SWAP3 SWAP2 POP POP JUMP JUMPDEST PUSH0 PUSH1 0x20 DUP3 DUP5 SUB SLT ISZERO PUSH2 0x272 JUMPI PUSH2 0x271 PUSH2 0x119 JUMP JUMPDEST JUMPDEST PUSH0 DUP3 ADD CALLDATALOAD PUSH8 0xFFFFFFFFFFFFFFFF DUP2 GT ISZERO PUSH2 0x28F JUMPI PUSH2 0x28E PUSH2 0x11D JUMP JUMPDEST JUMPDEST PUSH2 0x29B DUP5 DUP3 DUP6 ADD PUSH2 0x230 JUMP JUMPDEST SWAP2 POP POP SWAP3 SWAP2 POP POP JUMP JUMPDEST PUSH0 DUP2 MLOAD SWAP1 POP SWAP2 SWAP1 POP JUMP JUMPDEST PUSH0 DUP3 DUP3 MSTORE PUSH1 0x20 DUP3 ADD SWAP1 POP SWAP3 SWAP2 POP POP JUMP JUMPDEST PUSH0 JUMPDEST DUP4 DUP2 LT ISZERO PUSH2 0x2DB JUMPI DUP1 DUP3 ADD MLOAD DUP2 DUP5 ADD MSTORE PUSH1 0x20 DUP2 ADD SWAP1 POP PUSH2 0x2C0 JUMP JUMPDEST PUSH0 DUP5 DUP5 ADD MSTORE POP POP POP POP JUMP JUMPDEST PUSH0 PUSH2 0x2F0 DUP3 PUSH2 0x2A4 JUMP JUMPDEST PUSH2 0x2FA DUP2 DUP6 PUSH2 0x2AE JUMP JUMPDEST SWAP4 POP PUSH2 0x30A DUP2 DUP6 PUSH1 0x20 DUP7 ADD PUSH2 0x2BE JUMP JUMPDEST PUSH2 0x313 DUP2 PUSH2 0x129 JUMP JUMPDEST DUP5 ADD SWAP2 POP POP SWAP3 SWAP2 POP POP JUMP JUMPDEST PUSH0 PUSH1 0x20 DUP3 ADD SWAP1 POP DUP2 DUP2 SUB PUSH0 DUP4 ADD MSTORE PUSH2 0x336 DUP2 DUP5 PUSH2 0x2E6 JUMP JUMPDEST SWAP1 POP SWAP3 SWAP2 POP POP JUMP JUMPDEST PUSH0 PUSH8 0xFFFFFFFFFFFFFFFF DUP3 GT ISZERO PUSH2 0x358 JUMPI PUSH2 0x357 PUSH2 0x139 JUMP JUMPDEST JUMPDEST PUSH2 0x361 DUP3 PUSH2 0x129 JUMP JUMPDEST SWAP1 POP PUSH1 0x20 DUP2 ADD SWAP1 POP SWAP2 SWAP1 POP JUMP JUMPDEST PUSH0 PUSH2 0x380 PUSH2 0x37B DUP5 PUSH2 0x33E JUMP JUMPDEST PUSH2 0x197 JUMP JUMPDEST SWAP1 POP DUP3 DUP2 MSTORE PUSH1 0x20 DUP2 ADD DUP5 DUP5 DUP5 ADD GT ISZERO PUSH2 0x39C JUMPI PUSH2 0x39B PUSH2 0x125 JUMP JUMPDEST JUMPDEST PUSH2 0x3A7 DUP5 DUP3 DUP6 PUSH2 0x1E1 JUMP JUMPDEST POP SWAP4 SWAP3 POP POP POP JUMP JUMPDEST PUSH0 DUP3 PUSH1 0x1F DUP4 ADD SLT PUSH2 0x3C3 JUMPI PUSH2 0x3C2 PUSH2 0x121 JUMP JUMPDEST JUMPDEST DUP2 CALLDATALOAD PUSH2 0x3D3 DUP5 DUP3 PUSH1 0x20 DUP7 ADD PUSH2 0x36E JUMP JUMPDEST SWAP2 POP POP SWAP3 SWAP2 POP POP JUMP JUMPDEST PUSH0 PUSH1 0x20 DUP3 DUP5 SUB SLT ISZERO PUSH2 0x3F1 JUMPI PUSH2 0x3F0 PUSH2 0x119 JUMP JUMPDEST JUMPDEST PUSH0 DUP3 ADD CALLDATALOAD PUSH8 0xFFFFFFFFFFFFFFFF DUP2 GT ISZERO PUSH2 0x40E JUMPI PUSH2 0x40D PUSH2 0x11D JUMP JUMPDEST JUMPDEST PUSH2 0x41A DUP5 DUP3 DUP6 ADD PUSH2 0x3AF JUMP JUMPDEST SWAP2 POP POP SWAP3 SWAP2 POP POP JUMP JUMPDEST PUSH0 DUP2 MLOAD SWAP1 POP SWAP2 SWAP1 POP JUMP JUMPDEST PUSH0 DUP3 DUP3 MSTORE PUSH1 0x20 DUP3 ADD SWAP1 POP SWAP3 SWAP2 POP POP JUMP JUMPDEST PUSH0 PUSH2 0x447 DUP3 PUSH2 0x423 JUMP JUMPDEST PUSH2 0x451 DUP2 DUP6 PUSH2 0x42D JUMP JUMPDEST SWAP4 POP PUSH2 0x461 DUP2 DUP6 PUSH1 0x20 DUP7 ADD PUSH2 0x2BE JUMP JUMPDEST PUSH2 0x46A DUP2 PUSH2 0x129 JUMP JUMPDEST DUP5 ADD SWAP2 POP POP SWAP3 SWAP2 POP POP JUMP JUMPDEST PUSH0 PUSH1 0x20 DUP3 ADD SWAP1 POP DUP2 DUP2 SUB PUSH0 DUP4 ADD MSTORE PUSH2 0x48D DUP2 DUP5 PUSH2 0x43D JUMP JUMPDEST SWAP1 POP SWAP3 SWAP2 POP POP JUMP JUMPDEST PUSH0 DUP2 SWAP1 POP SWAP3 SWAP2 POP POP JUMP JUMPDEST PUSH0 PUSH2 0x4A9 DUP3 PUSH2 0x423 JUMP JUMPDEST PUSH2 0x4B3 DUP2 DUP6 PUSH2 0x495 JUMP JUMPDEST SWAP4 POP PUSH2 0x4C3 DUP2 DUP6 PUSH1 0x20 DUP7 ADD PUSH2 0x2BE JUMP JUMPDEST DUP1 DUP5 ADD SWAP2 POP POP SWAP3 SWAP2 POP POP JUMP JUMPDEST PUSH0 PUSH2 0x4DA DUP3 DUP5 PUSH2 0x49F JUMP JUMPDEST SWAP2 POP DUP2 SWAP1 POP SWAP3 SWAP2 POP POP JUMP INVALID LOG2 PUSH5 0x6970667358 0x22 SLT KECCAK256 CALLVALUE PUSH21 0x1A3BB908917D694CFCE5FB252E6D5F288E17BAB37E PUSH22 0x9844EDED006A819064736F6C63430008170033000000 "
				},
				"gasEstimates": {
					"creation": {
						"codeDepositCost": "261400",
						"executionCost": "298",
						"totalCost": "261698"
					},
					"external": {
						"bytesToString(bytes)": "infinite",
						"bytesToString2(bytes)": "infinite",
						"stringToBytes(string)": "infinite"
					}
				},
				"methodIdentifiers": {
					"bytesToString(bytes)": "39614e4f",
					"bytesToString2(bytes)": "bc295ca3",
					"stringToBytes(string)": "e106fb4b"
				}
			},
			"storageLayout": {
				"storage": [],
				"types": null
			},
			"userdoc": {
				"kind": "user",
				"methods": {},
				"version": 1
			}
		}
	}
}