{
	"data": {
		"bytecode": {
			"linkReferences": {},
			"object": "608060405234801561000f575f80fd5b506104558061001d5f395ff3fe608060405234801561000f575f80fd5b506004361061003f575f3560e01c8063cc08469714610043578063d8de899d14610073578063e01aa1d9146100a3575b5f80fd5b61005d6004803603810190610058919061027c565b6100d3565b60405161006a919061033d565b60405180910390f35b61008d6004803603810190610088919061027c565b6100fc565b60405161009a919061033d565b60405180910390f35b6100bd60048036038101906100b8919061027c565b610106565b6040516100ca919061033d565b60405180910390f35b6060816040516020016100e691906103af565b6040516020818303038152906040529050919050565b6060819050919050565b6060816040516020016101199190610409565b6040516020818303038152906040529050919050565b5f604051905090565b5f80fd5b5f80fd5b5f80fd5b5f80fd5b5f601f19601f8301169050919050565b7f4e487b71000000000000000000000000000000000000000000000000000000005f52604160045260245ffd5b61018e82610148565b810181811067ffffffffffffffff821117156101ad576101ac610158565b5b80604052505050565b5f6101bf61012f565b90506101cb8282610185565b919050565b5f67ffffffffffffffff8211156101ea576101e9610158565b5b6101f382610148565b9050602081019050919050565b828183375f83830152505050565b5f61022061021b846101d0565b6101b6565b90508281526020810184848401111561023c5761023b610144565b5b610247848285610200565b509392505050565b5f82601f83011261026357610262610140565b5b813561027384826020860161020e565b91505092915050565b5f6020828403121561029157610290610138565b5b5f82013567ffffffffffffffff8111156102ae576102ad61013c565b5b6102ba8482850161024f565b91505092915050565b5f81519050919050565b5f82825260208201905092915050565b5f5b838110156102fa5780820151818401526020810190506102df565b5f8484015250505050565b5f61030f826102c3565b61031981856102cd565b93506103298185602086016102dd565b61033281610148565b840191505092915050565b5f6020820190508181035f8301526103558184610305565b905092915050565b5f81519050919050565b5f82825260208201905092915050565b5f6103818261035d565b61038b8185610367565b935061039b8185602086016102dd565b6103a481610148565b840191505092915050565b5f6020820190508181035f8301526103c78184610377565b905092915050565b5f81905092915050565b5f6103e38261035d565b6103ed81856103cf565b93506103fd8185602086016102dd565b80840191505092915050565b5f61041482846103d9565b91508190509291505056fea264697066735822122042544b9eeeebbd6b22ac63272a5d8223f729d14a68058a60d07b695ee018881964736f6c63430008170033",
			"opcodes": "PUSH1 0x80 PUSH1 0x40 MSTORE CALLVALUE DUP1 ISZERO PUSH2 0xF JUMPI PUSH0 DUP1 REVERT JUMPDEST POP PUSH2 0x455 DUP1 PUSH2 0x1D PUSH0 CODECOPY PUSH0 RETURN INVALID PUSH1 0x80 PUSH1 0x40 MSTORE CALLVALUE DUP1 ISZERO PUSH2 0xF JUMPI PUSH0 DUP1 REVERT JUMPDEST POP PUSH1 0x4 CALLDATASIZE LT PUSH2 0x3F JUMPI PUSH0 CALLDATALOAD PUSH1 0xE0 SHR DUP1 PUSH4 0xCC084697 EQ PUSH2 0x43 JUMPI DUP1 PUSH4 0xD8DE899D EQ PUSH2 0x73 JUMPI DUP1 PUSH4 0xE01AA1D9 EQ PUSH2 0xA3 JUMPI JUMPDEST PUSH0 DUP1 REVERT JUMPDEST PUSH2 0x5D PUSH1 0x4 DUP1 CALLDATASIZE SUB DUP2 ADD SWAP1 PUSH2 0x58 SWAP2 SWAP1 PUSH2 0x27C JUMP JUMPDEST PUSH2 0xD3 JUMP JUMPDEST PUSH1 0x40 MLOAD PUSH2 0x6A SWAP2 SWAP1 PUSH2 0x33D JUMP JUMPDEST PUSH1 0x40 MLOAD DUP1 SWAP2 SUB SWAP1 RETURN JUMPDEST PUSH2 0x8D PUSH1 0x4 DUP1 CALLDATASIZE SUB DUP2 ADD SWAP1 PUSH2 0x88 SWAP2 SWAP1 PUSH2 0x27C JUMP JUMPDEST PUSH2 0xFC JUMP JUMPDEST PUSH1 0x40 MLOAD PUSH2 0x9A SWAP2 SWAP1 PUSH2 0x33D JUMP JUMPDEST PUSH1 0x40 MLOAD DUP1 SWAP2 SUB SWAP1 RETURN JUMPDEST PUSH2 0xBD PUSH1 0x4 DUP1 CALLDATASIZE SUB DUP2 ADD SWAP1 PUSH2 0xB8 SWAP2 SWAP1 PUSH2 0x27C JUMP JUMPDEST PUSH2 0x106 JUMP JUMPDEST PUSH1 0x40 MLOAD PUSH2 0xCA SWAP2 SWAP1 PUSH2 0x33D JUMP JUMPDEST PUSH1 0x40 MLOAD DUP1 SWAP2 SUB SWAP1 RETURN JUMPDEST PUSH1 0x60 DUP2 PUSH1 0x40 MLOAD PUSH1 0x20 ADD PUSH2 0xE6 SWAP2 SWAP1 PUSH2 0x3AF JUMP JUMPDEST PUSH1 0x40 MLOAD PUSH1 0x20 DUP2 DUP4 SUB SUB DUP2 MSTORE SWAP1 PUSH1 0x40 MSTORE SWAP1 POP SWAP2 SWAP1 POP JUMP JUMPDEST PUSH1 0x60 DUP2 SWAP1 POP SWAP2 SWAP1 POP JUMP JUMPDEST PUSH1 0x60 DUP2 PUSH1 0x40 MLOAD PUSH1 0x20 ADD PUSH2 0x119 SWAP2 SWAP1 PUSH2 0x409 JUMP JUMPDEST PUSH1 0x40 MLOAD PUSH1 0x20 DUP2 DUP4 SUB SUB DUP2 MSTORE SWAP1 PUSH1 0x40 MSTORE SWAP1 POP SWAP2 SWAP1 POP JUMP JUMPDEST PUSH0 PUSH1 0x40 MLOAD SWAP1 POP SWAP1 JUMP JUMPDEST PUSH0 DUP1 REVERT JUMPDEST PUSH0 DUP1 REVERT JUMPDEST PUSH0 DUP1 REVERT JUMPDEST PUSH0 DUP1 REVERT JUMPDEST PUSH0 PUSH1 0x1F NOT PUSH1 0x1F DUP4 ADD AND SWAP1 POP SWAP2 SWAP1 POP JUMP JUMPDEST PUSH32 0x4E487B7100000000000000000000000000000000000000000000000000000000 PUSH0 MSTORE PUSH1 0x41 PUSH1 0x4 MSTORE PUSH1 0x24 PUSH0 REVERT JUMPDEST PUSH2 0x18E DUP3 PUSH2 0x148 JUMP JUMPDEST DUP2 ADD DUP2 DUP2 LT PUSH8 0xFFFFFFFFFFFFFFFF DUP3 GT OR ISZERO PUSH2 0x1AD JUMPI PUSH2 0x1AC PUSH2 0x158 JUMP JUMPDEST JUMPDEST DUP1 PUSH1 0x40 MSTORE POP POP POP JUMP JUMPDEST PUSH0 PUSH2 0x1BF PUSH2 0x12F JUMP JUMPDEST SWAP1 POP PUSH2 0x1CB DUP3 DUP3 PUSH2 0x185 JUMP JUMPDEST SWAP2 SWAP1 POP JUMP JUMPDEST PUSH0 PUSH8 0xFFFFFFFFFFFFFFFF DUP3 GT ISZERO PUSH2 0x1EA JUMPI PUSH2 0x1E9 PUSH2 0x158 JUMP JUMPDEST JUMPDEST PUSH2 0x1F3 DUP3 PUSH2 0x148 JUMP JUMPDEST SWAP1 POP PUSH1 0x20 DUP2 ADD SWAP1 POP SWAP2 SWAP1 POP JUMP JUMPDEST DUP3 DUP2 DUP4 CALLDATACOPY PUSH0 DUP4 DUP4 ADD MSTORE POP POP POP JUMP JUMPDEST PUSH0 PUSH2 0x220 PUSH2 0x21B DUP5 PUSH2 0x1D0 JUMP JUMPDEST PUSH2 0x1B6 JUMP JUMPDEST SWAP1 POP DUP3 DUP2 MSTORE PUSH1 0x20 DUP2 ADD DUP5 DUP5 DUP5 ADD GT ISZERO PUSH2 0x23C JUMPI PUSH2 0x23B PUSH2 0x144 JUMP JUMPDEST JUMPDEST PUSH2 0x247 DUP5 DUP3 DUP6 PUSH2 0x200 JUMP JUMPDEST POP SWAP4 SWAP3 POP POP POP JUMP JUMPDEST PUSH0 DUP3 PUSH1 0x1F DUP4 ADD SLT PUSH2 0x263 JUMPI PUSH2 0x262 PUSH2 0x140 JUMP JUMPDEST JUMPDEST DUP2 CALLDATALOAD PUSH2 0x273 DUP5 DUP3 PUSH1 0x20 DUP7 ADD PUSH2 0x20E JUMP JUMPDEST SWAP2 POP POP SWAP3 SWAP2 POP POP JUMP JUMPDEST PUSH0 PUSH1 0x20 DUP3 DUP5 SUB SLT ISZERO PUSH2 0x291 JUMPI PUSH2 0x290 PUSH2 0x138 JUMP JUMPDEST JUMPDEST PUSH0 DUP3 ADD CALLDATALOAD PUSH8 0xFFFFFFFFFFFFFFFF DUP2 GT ISZERO PUSH2 0x2AE JUMPI PUSH2 0x2AD PUSH2 0x13C JUMP JUMPDEST JUMPDEST PUSH2 0x2BA DUP5 DUP3 DUP6 ADD PUSH2 0x24F JUMP JUMPDEST SWAP2 POP POP SWAP3 SWAP2 POP POP JUMP JUMPDEST PUSH0 DUP2 MLOAD SWAP1 POP SWAP2 SWAP1 POP JUMP JUMPDEST PUSH0 DUP3 DUP3 MSTORE PUSH1 0x20 DUP3 ADD SWAP1 POP SWAP3 SWAP2 POP POP JUMP JUMPDEST PUSH0 JUMPDEST DUP4 DUP2 LT ISZERO PUSH2 0x2FA JUMPI DUP1 DUP3 ADD MLOAD DUP2 DUP5 ADD MSTORE PUSH1 0x20 DUP2 ADD SWAP1 POP PUSH2 0x2DF JUMP JUMPDEST PUSH0 DUP5 DUP5 ADD MSTORE POP POP POP POP JUMP JUMPDEST PUSH0 PUSH2 0x30F DUP3 PUSH2 0x2C3 JUMP JUMPDEST PUSH2 0x319 DUP2 DUP6 PUSH2 0x2CD JUMP JUMPDEST SWAP4 POP PUSH2 0x329 DUP2 DUP6 PUSH1 0x20 DUP7 ADD PUSH2 0x2DD JUMP JUMPDEST PUSH2 0x332 DUP2 PUSH2 0x148 JUMP JUMPDEST DUP5 ADD SWAP2 POP POP SWAP3 SWAP2 POP POP JUMP JUMPDEST PUSH0 PUSH1 0x20 DUP3 ADD SWAP1 POP DUP2 DUP2 SUB PUSH0 DUP4 ADD MSTORE PUSH2 0x355 DUP2 DUP5 PUSH2 0x305 JUMP JUMPDEST SWAP1 POP SWAP3 SWAP2 POP POP JUMP JUMPDEST PUSH0 DUP2 MLOAD SWAP1 POP SWAP2 SWAP1 POP JUMP JUMPDEST PUSH0 DUP3 DUP3 MSTORE PUSH1 0x20 DUP3 ADD SWAP1 POP SWAP3 SWAP2 POP POP JUMP JUMPDEST PUSH0 PUSH2 0x381 DUP3 PUSH2 0x35D JUMP JUMPDEST PUSH2 0x38B DUP2 DUP6 PUSH2 0x367 JUMP JUMPDEST SWAP4 POP PUSH2 0x39B DUP2 DUP6 PUSH1 0x20 DUP7 ADD PUSH2 0x2DD JUMP JUMPDEST PUSH2 0x3A4 DUP2 PUSH2 0x148 JUMP JUMPDEST DUP5 ADD SWAP2 POP POP SWAP3 SWAP2 POP POP JUMP JUMPDEST PUSH0 PUSH1 0x20 DUP3 ADD SWAP1 POP DUP2 DUP2 SUB PUSH0 DUP4 ADD MSTORE PUSH2 0x3C7 DUP2 DUP5 PUSH2 0x377 JUMP JUMPDEST SWAP1 POP SWAP3 SWAP2 POP POP JUMP JUMPDEST PUSH0 DUP2 SWAP1 POP SWAP3 SWAP2 POP POP JUMP JUMPDEST PUSH0 PUSH2 0x3E3 DUP3 PUSH2 0x35D JUMP JUMPDEST PUSH2 0x3ED DUP2 DUP6 PUSH2 0x3CF JUMP JUMPDEST SWAP4 POP PUSH2 0x3FD DUP2 DUP6 PUSH1 0x20 DUP7 ADD PUSH2 0x2DD JUMP JUMPDEST DUP1 DUP5 ADD SWAP2 POP POP SWAP3 SWAP2 POP POP JUMP JUMPDEST PUSH0 PUSH2 0x414 DUP3 DUP5 PUSH2 0x3D9 JUMP JUMPDEST SWAP2 POP DUP2 SWAP1 POP SWAP3 SWAP2 POP POP JUMP INVALID LOG2 PUSH5 0x6970667358 0x22 SLT KECCAK256 TIMESTAMP SLOAD 0x4B SWAP15 0xEE 0xEB 0xBD PUSH12 0x22AC63272A5D8223F729D14A PUSH9 0x58A60D07B695EE018 DUP9 NOT PUSH5 0x736F6C6343 STOP ADDMOD OR STOP CALLER "
		},
		"gasEstimates": {
			"creation": {
				"codeDepositCost": "221800",
				"executionCost": "261",
				"totalCost": "222061"
			},
			"external": {
				"getBytes(string)": "infinite",
				"getabiEncode(string)": "infinite",
				"getabiEncodePacked(string)": "infinite"
			}
		},
		"methodIdentifiers": {
			"getBytes(string)": "d8de899d",
			"getabiEncode(string)": "cc084697",
			"getabiEncodePacked(string)": "e01aa1d9"
		}
	},
	"abi": [
		{
			"inputs": [
				{
					"internalType": "string",
					"name": "_s",
					"type": "string"
				}
			],
			"name": "getBytes",
			"outputs": [
				{
					"internalType": "bytes",
					"name": "",
					"type": "bytes"
				}
			],
			"stateMutability": "pure",
			"type": "function"
		},
		{
			"inputs": [
				{
					"internalType": "string",
					"name": "_s",
					"type": "string"
				}
			],
			"name": "getabiEncode",
			"outputs": [
				{
					"internalType": "bytes",
					"name": "",
					"type": "bytes"
				}
			],
			"stateMutability": "pure",
			"type": "function"
		},
		{
			"inputs": [
				{
					"internalType": "string",
					"name": "_s",
					"type": "string"
				}
			],
			"name": "getabiEncodePacked",
			"outputs": [
				{
					"internalType": "bytes",
					"name": "",
					"type": "bytes"
				}
			],
			"stateMutability": "pure",
			"type": "function"
		}
	]
}