{
	"data": {
		"bytecode": {
			"linkReferences": {},
			"object": "608060405234801561000f575f80fd5b506102cb8061001d5f395ff3fe608060405234801561000f575f80fd5b5060043610610029575f3560e01c80639f2e140e1461002d575b5f80fd5b610047600480360381019061004291906101b4565b61005d565b6040516100549190610275565b60405180910390f35b6060819050919050565b5f604051905090565b5f80fd5b5f80fd5b5f80fd5b5f80fd5b5f601f19601f8301169050919050565b7f4e487b71000000000000000000000000000000000000000000000000000000005f52604160045260245ffd5b6100c682610080565b810181811067ffffffffffffffff821117156100e5576100e4610090565b5b80604052505050565b5f6100f7610067565b905061010382826100bd565b919050565b5f67ffffffffffffffff82111561012257610121610090565b5b61012b82610080565b9050602081019050919050565b828183375f83830152505050565b5f61015861015384610108565b6100ee565b9050828152602081018484840111156101745761017361007c565b5b61017f848285610138565b509392505050565b5f82601f83011261019b5761019a610078565b5b81356101ab848260208601610146565b91505092915050565b5f602082840312156101c9576101c8610070565b5b5f82013567ffffffffffffffff8111156101e6576101e5610074565b5b6101f284828501610187565b91505092915050565b5f81519050919050565b5f82825260208201905092915050565b5f5b83811015610232578082015181840152602081019050610217565b5f8484015250505050565b5f610247826101fb565b6102518185610205565b9350610261818560208601610215565b61026a81610080565b840191505092915050565b5f6020820190508181035f83015261028d818461023d565b90509291505056fea26469706673582212206f04213bceabd05ff7ffc426e28071c7f622964fec23b68a429c49db223dd9c164736f6c63430008170033",
			"opcodes": "PUSH1 0x80 PUSH1 0x40 MSTORE CALLVALUE DUP1 ISZERO PUSH2 0xF JUMPI PUSH0 DUP1 REVERT JUMPDEST POP PUSH2 0x2CB DUP1 PUSH2 0x1D PUSH0 CODECOPY PUSH0 RETURN INVALID PUSH1 0x80 PUSH1 0x40 MSTORE CALLVALUE DUP1 ISZERO PUSH2 0xF JUMPI PUSH0 DUP1 REVERT JUMPDEST POP PUSH1 0x4 CALLDATASIZE LT PUSH2 0x29 JUMPI PUSH0 CALLDATALOAD PUSH1 0xE0 SHR DUP1 PUSH4 0x9F2E140E EQ PUSH2 0x2D JUMPI JUMPDEST PUSH0 DUP1 REVERT JUMPDEST PUSH2 0x47 PUSH1 0x4 DUP1 CALLDATASIZE SUB DUP2 ADD SWAP1 PUSH2 0x42 SWAP2 SWAP1 PUSH2 0x1B4 JUMP JUMPDEST PUSH2 0x5D JUMP JUMPDEST PUSH1 0x40 MLOAD PUSH2 0x54 SWAP2 SWAP1 PUSH2 0x275 JUMP JUMPDEST PUSH1 0x40 MLOAD DUP1 SWAP2 SUB SWAP1 RETURN JUMPDEST PUSH1 0x60 DUP2 SWAP1 POP SWAP2 SWAP1 POP JUMP JUMPDEST PUSH0 PUSH1 0x40 MLOAD SWAP1 POP SWAP1 JUMP JUMPDEST PUSH0 DUP1 REVERT JUMPDEST PUSH0 DUP1 REVERT JUMPDEST PUSH0 DUP1 REVERT JUMPDEST PUSH0 DUP1 REVERT JUMPDEST PUSH0 PUSH1 0x1F NOT PUSH1 0x1F DUP4 ADD AND SWAP1 POP SWAP2 SWAP1 POP JUMP JUMPDEST PUSH32 0x4E487B7100000000000000000000000000000000000000000000000000000000 PUSH0 MSTORE PUSH1 0x41 PUSH1 0x4 MSTORE PUSH1 0x24 PUSH0 REVERT JUMPDEST PUSH2 0xC6 DUP3 PUSH2 0x80 JUMP JUMPDEST DUP2 ADD DUP2 DUP2 LT PUSH8 0xFFFFFFFFFFFFFFFF DUP3 GT OR ISZERO PUSH2 0xE5 JUMPI PUSH2 0xE4 PUSH2 0x90 JUMP JUMPDEST JUMPDEST DUP1 PUSH1 0x40 MSTORE POP POP POP JUMP JUMPDEST PUSH0 PUSH2 0xF7 PUSH2 0x67 JUMP JUMPDEST SWAP1 POP PUSH2 0x103 DUP3 DUP3 PUSH2 0xBD JUMP JUMPDEST SWAP2 SWAP1 POP JUMP JUMPDEST PUSH0 PUSH8 0xFFFFFFFFFFFFFFFF DUP3 GT ISZERO PUSH2 0x122 JUMPI PUSH2 0x121 PUSH2 0x90 JUMP JUMPDEST JUMPDEST PUSH2 0x12B DUP3 PUSH2 0x80 JUMP JUMPDEST SWAP1 POP PUSH1 0x20 DUP2 ADD SWAP1 POP SWAP2 SWAP1 POP JUMP JUMPDEST DUP3 DUP2 DUP4 CALLDATACOPY PUSH0 DUP4 DUP4 ADD MSTORE POP POP POP JUMP JUMPDEST PUSH0 PUSH2 0x158 PUSH2 0x153 DUP5 PUSH2 0x108 JUMP JUMPDEST PUSH2 0xEE JUMP JUMPDEST SWAP1 POP DUP3 DUP2 MSTORE PUSH1 0x20 DUP2 ADD DUP5 DUP5 DUP5 ADD GT ISZERO PUSH2 0x174 JUMPI PUSH2 0x173 PUSH2 0x7C JUMP JUMPDEST JUMPDEST PUSH2 0x17F DUP5 DUP3 DUP6 PUSH2 0x138 JUMP JUMPDEST POP SWAP4 SWAP3 POP POP POP JUMP JUMPDEST PUSH0 DUP3 PUSH1 0x1F DUP4 ADD SLT PUSH2 0x19B JUMPI PUSH2 0x19A PUSH2 0x78 JUMP JUMPDEST JUMPDEST DUP2 CALLDATALOAD PUSH2 0x1AB DUP5 DUP3 PUSH1 0x20 DUP7 ADD PUSH2 0x146 JUMP JUMPDEST SWAP2 POP POP SWAP3 SWAP2 POP POP JUMP JUMPDEST PUSH0 PUSH1 0x20 DUP3 DUP5 SUB SLT ISZERO PUSH2 0x1C9 JUMPI PUSH2 0x1C8 PUSH2 0x70 JUMP JUMPDEST JUMPDEST PUSH0 DUP3 ADD CALLDATALOAD PUSH8 0xFFFFFFFFFFFFFFFF DUP2 GT ISZERO PUSH2 0x1E6 JUMPI PUSH2 0x1E5 PUSH2 0x74 JUMP JUMPDEST JUMPDEST PUSH2 0x1F2 DUP5 DUP3 DUP6 ADD PUSH2 0x187 JUMP JUMPDEST SWAP2 POP POP SWAP3 SWAP2 POP POP JUMP JUMPDEST PUSH0 DUP2 MLOAD SWAP1 POP SWAP2 SWAP1 POP JUMP JUMPDEST PUSH0 DUP3 DUP3 MSTORE PUSH1 0x20 DUP3 ADD SWAP1 POP SWAP3 SWAP2 POP POP JUMP JUMPDEST PUSH0 JUMPDEST DUP4 DUP2 LT ISZERO PUSH2 0x232 JUMPI DUP1 DUP3 ADD MLOAD DUP2 DUP5 ADD MSTORE PUSH1 0x20 DUP2 ADD SWAP1 POP PUSH2 0x217 JUMP JUMPDEST PUSH0 DUP5 DUP5 ADD MSTORE POP POP POP POP JUMP JUMPDEST PUSH0 PUSH2 0x247 DUP3 PUSH2 0x1FB JUMP JUMPDEST PUSH2 0x251 DUP2 DUP6 PUSH2 0x205 JUMP JUMPDEST SWAP4 POP PUSH2 0x261 DUP2 DUP6 PUSH1 0x20 DUP7 ADD PUSH2 0x215 JUMP JUMPDEST PUSH2 0x26A DUP2 PUSH2 0x80 JUMP JUMPDEST DUP5 ADD SWAP2 POP POP SWAP3 SWAP2 POP POP JUMP JUMPDEST PUSH0 PUSH1 0x20 DUP3 ADD SWAP1 POP DUP2 DUP2 SUB PUSH0 DUP4 ADD MSTORE PUSH2 0x28D DUP2 DUP5 PUSH2 0x23D JUMP JUMPDEST SWAP1 POP SWAP3 SWAP2 POP POP JUMP INVALID LOG2 PUSH5 0x6970667358 0x22 SLT KECCAK256 PUSH16 0x4213BCEABD05FF7FFC426E28071C7F6 0x22 SWAP7 0x4F 0xEC 0x23 0xB6 DUP11 TIMESTAMP SWAP13 0x49 0xDB 0x22 RETURNDATASIZE 0xD9 0xC1 PUSH5 0x736F6C6343 STOP ADDMOD OR STOP CALLER "
		},
		"gasEstimates": {
			"creation": {
				"codeDepositCost": "143000",
				"executionCost": "188",
				"totalCost": "143188"
			},
			"external": {
				"toBytes(string)": "infinite"
			}
		},
		"methodIdentifiers": {
			"toBytes(string)": "9f2e140e"
		}
	},
	"abi": [
		{
			"inputs": [
				{
					"internalType": "string",
					"name": "_s",
					"type": "string"
				}
			],
			"name": "toBytes",
			"outputs": [
				{
					"internalType": "bytes",
					"name": "",
					"type": "bytes"
				}
			],
			"stateMutability": "pure",
			"type": "function"
		}
	]
}