{
	"data": {
		"bytecode": {
			"linkReferences": {},
			"object": "608060405234801561000f575f80fd5b506107af8061001d5f395ff3fe608060405234801561000f575f80fd5b506004361061004a575f3560e01c80638d9dc5ec1461004e578063aacbfe0b1461007e578063cb46861a146100ae578063d46300fd146100de575b5f80fd5b610068600480360381019061006391906105ee565b6100fc565b60405161007591906106a3565b60405180910390f35b610098600480360381019061009391906105ee565b610287565b6040516100a591906106a3565b60405180910390f35b6100c860048036038101906100c391906105ee565b610412565b6040516100d591906106a3565b60405180910390f35b6100e66105af565b6040516100f391906106d2565b60405180910390f35b6060815f81905550600a821115610148576040517f08c379a000000000000000000000000000000000000000000000000000000000815260040161013f9061075b565b60405180910390fd5b5f545f1115801561015b575060025f5411155b1561019d576040518060400160405280600181526020017f41000000000000000000000000000000000000000000000000000000000000008152509050610282565b5f546003111580156101b1575060055f5411155b156101f3576040518060400160405280600181526020017f42000000000000000000000000000000000000000000000000000000000000008152509050610282565b5f54600611158015610207575060085f5411155b15610249576040518060400160405280600181526020017f63000000000000000000000000000000000000000000000000000000000000008152509050610282565b6040518060400160405280600181526020017f440000000000000000000000000000000000000000000000000000000000000081525090505b919050565b6060600a8211156102cd576040517f08c379a00000000000000000000000000000000000000000000000000000000081526004016102c49061075b565b60405180910390fd5b815f819055505f545f111580156102e6575060025f5411155b15610328576040518060400160405280600181526020017f4100000000000000000000000000000000000000000000000000000000000000815250905061040d565b5f5460031115801561033c575060055f5411155b1561037e576040518060400160405280600181526020017f4200000000000000000000000000000000000000000000000000000000000000815250905061040d565b5f54600611158015610392575060085f5411155b156103d4576040518060400160405280600181526020017f6300000000000000000000000000000000000000000000000000000000000000815250905061040d565b6040518060400160405280600181526020017f440000000000000000000000000000000000000000000000000000000000000081525090505b919050565b6060815f819055505f545f1115801561042d575060025f5411155b1561046f576040518060400160405280600181526020017f410000000000000000000000000000000000000000000000000000000000000081525090506105aa565b5f54600311158015610483575060055f5411155b156104c5576040518060400160405280600181526020017f420000000000000000000000000000000000000000000000000000000000000081525090506105aa565b5f546006111580156104d9575060085f5411155b1561051b576040518060400160405280600181526020017f630000000000000000000000000000000000000000000000000000000000000081525090506105aa565b5f5460091115801561052f5750600a5f5411155b15610571576040518060400160405280600181526020017f440000000000000000000000000000000000000000000000000000000000000081525090506105aa565b6040518060400160405280600181526020017f460000000000000000000000000000000000000000000000000000000000000081525090505b919050565b5f8054905090565b5f80fd5b5f819050919050565b6105cd816105bb565b81146105d7575f80fd5b50565b5f813590506105e8816105c4565b92915050565b5f60208284031215610603576106026105b7565b5b5f610610848285016105da565b91505092915050565b5f81519050919050565b5f82825260208201905092915050565b5f5b83811015610650578082015181840152602081019050610635565b5f8484015250505050565b5f601f19601f8301169050919050565b5f61067582610619565b61067f8185610623565b935061068f818560208601610633565b6106988161065b565b840191505092915050565b5f6020820190508181035f8301526106bb818461066b565b905092915050565b6106cc816105bb565b82525050565b5f6020820190506106e55f8301846106c3565b92915050565b7f5f6e2073686f756c64206e6f7420626520686967686572207468616e2031302e5f8201527f2000000000000000000000000000000000000000000000000000000000000000602082015250565b5f610745602183610623565b9150610750826106eb565b604082019050919050565b5f6020820190508181035f83015261077281610739565b905091905056fea2646970667358221220380a8093feba13aa4fa4aeb5b92633ab282faacc44098eb9cd2836707263139464736f6c63430008170033",
			"opcodes": "PUSH1 0x80 PUSH1 0x40 MSTORE CALLVALUE DUP1 ISZERO PUSH2 0xF JUMPI PUSH0 DUP1 REVERT JUMPDEST POP PUSH2 0x7AF DUP1 PUSH2 0x1D PUSH0 CODECOPY PUSH0 RETURN INVALID PUSH1 0x80 PUSH1 0x40 MSTORE CALLVALUE DUP1 ISZERO PUSH2 0xF JUMPI PUSH0 DUP1 REVERT JUMPDEST POP PUSH1 0x4 CALLDATASIZE LT PUSH2 0x4A JUMPI PUSH0 CALLDATALOAD PUSH1 0xE0 SHR DUP1 PUSH4 0x8D9DC5EC EQ PUSH2 0x4E JUMPI DUP1 PUSH4 0xAACBFE0B EQ PUSH2 0x7E JUMPI DUP1 PUSH4 0xCB46861A EQ PUSH2 0xAE JUMPI DUP1 PUSH4 0xD46300FD EQ PUSH2 0xDE JUMPI JUMPDEST PUSH0 DUP1 REVERT JUMPDEST PUSH2 0x68 PUSH1 0x4 DUP1 CALLDATASIZE SUB DUP2 ADD SWAP1 PUSH2 0x63 SWAP2 SWAP1 PUSH2 0x5EE JUMP JUMPDEST PUSH2 0xFC JUMP JUMPDEST PUSH1 0x40 MLOAD PUSH2 0x75 SWAP2 SWAP1 PUSH2 0x6A3 JUMP JUMPDEST PUSH1 0x40 MLOAD DUP1 SWAP2 SUB SWAP1 RETURN JUMPDEST PUSH2 0x98 PUSH1 0x4 DUP1 CALLDATASIZE SUB DUP2 ADD SWAP1 PUSH2 0x93 SWAP2 SWAP1 PUSH2 0x5EE JUMP JUMPDEST PUSH2 0x287 JUMP JUMPDEST PUSH1 0x40 MLOAD PUSH2 0xA5 SWAP2 SWAP1 PUSH2 0x6A3 JUMP JUMPDEST PUSH1 0x40 MLOAD DUP1 SWAP2 SUB SWAP1 RETURN JUMPDEST PUSH2 0xC8 PUSH1 0x4 DUP1 CALLDATASIZE SUB DUP2 ADD SWAP1 PUSH2 0xC3 SWAP2 SWAP1 PUSH2 0x5EE JUMP JUMPDEST PUSH2 0x412 JUMP JUMPDEST PUSH1 0x40 MLOAD PUSH2 0xD5 SWAP2 SWAP1 PUSH2 0x6A3 JUMP JUMPDEST PUSH1 0x40 MLOAD DUP1 SWAP2 SUB SWAP1 RETURN JUMPDEST PUSH2 0xE6 PUSH2 0x5AF JUMP JUMPDEST PUSH1 0x40 MLOAD PUSH2 0xF3 SWAP2 SWAP1 PUSH2 0x6D2 JUMP JUMPDEST PUSH1 0x40 MLOAD DUP1 SWAP2 SUB SWAP1 RETURN JUMPDEST PUSH1 0x60 DUP2 PUSH0 DUP2 SWAP1 SSTORE POP PUSH1 0xA DUP3 GT ISZERO PUSH2 0x148 JUMPI PUSH1 0x40 MLOAD PUSH32 0x8C379A000000000000000000000000000000000000000000000000000000000 DUP2 MSTORE PUSH1 0x4 ADD PUSH2 0x13F SWAP1 PUSH2 0x75B JUMP JUMPDEST PUSH1 0x40 MLOAD DUP1 SWAP2 SUB SWAP1 REVERT JUMPDEST PUSH0 SLOAD PUSH0 GT ISZERO DUP1 ISZERO PUSH2 0x15B JUMPI POP PUSH1 0x2 PUSH0 SLOAD GT ISZERO JUMPDEST ISZERO PUSH2 0x19D JUMPI PUSH1 0x40 MLOAD DUP1 PUSH1 0x40 ADD PUSH1 0x40 MSTORE DUP1 PUSH1 0x1 DUP2 MSTORE PUSH1 0x20 ADD PUSH32 0x4100000000000000000000000000000000000000000000000000000000000000 DUP2 MSTORE POP SWAP1 POP PUSH2 0x282 JUMP JUMPDEST PUSH0 SLOAD PUSH1 0x3 GT ISZERO DUP1 ISZERO PUSH2 0x1B1 JUMPI POP PUSH1 0x5 PUSH0 SLOAD GT ISZERO JUMPDEST ISZERO PUSH2 0x1F3 JUMPI PUSH1 0x40 MLOAD DUP1 PUSH1 0x40 ADD PUSH1 0x40 MSTORE DUP1 PUSH1 0x1 DUP2 MSTORE PUSH1 0x20 ADD PUSH32 0x4200000000000000000000000000000000000000000000000000000000000000 DUP2 MSTORE POP SWAP1 POP PUSH2 0x282 JUMP JUMPDEST PUSH0 SLOAD PUSH1 0x6 GT ISZERO DUP1 ISZERO PUSH2 0x207 JUMPI POP PUSH1 0x8 PUSH0 SLOAD GT ISZERO JUMPDEST ISZERO PUSH2 0x249 JUMPI PUSH1 0x40 MLOAD DUP1 PUSH1 0x40 ADD PUSH1 0x40 MSTORE DUP1 PUSH1 0x1 DUP2 MSTORE PUSH1 0x20 ADD PUSH32 0x6300000000000000000000000000000000000000000000000000000000000000 DUP2 MSTORE POP SWAP1 POP PUSH2 0x282 JUMP JUMPDEST PUSH1 0x40 MLOAD DUP1 PUSH1 0x40 ADD PUSH1 0x40 MSTORE DUP1 PUSH1 0x1 DUP2 MSTORE PUSH1 0x20 ADD PUSH32 0x4400000000000000000000000000000000000000000000000000000000000000 DUP2 MSTORE POP SWAP1 POP JUMPDEST SWAP2 SWAP1 POP JUMP JUMPDEST PUSH1 0x60 PUSH1 0xA DUP3 GT ISZERO PUSH2 0x2CD JUMPI PUSH1 0x40 MLOAD PUSH32 0x8C379A000000000000000000000000000000000000000000000000000000000 DUP2 MSTORE PUSH1 0x4 ADD PUSH2 0x2C4 SWAP1 PUSH2 0x75B JUMP JUMPDEST PUSH1 0x40 MLOAD DUP1 SWAP2 SUB SWAP1 REVERT JUMPDEST DUP2 PUSH0 DUP2 SWAP1 SSTORE POP PUSH0 SLOAD PUSH0 GT ISZERO DUP1 ISZERO PUSH2 0x2E6 JUMPI POP PUSH1 0x2 PUSH0 SLOAD GT ISZERO JUMPDEST ISZERO PUSH2 0x328 JUMPI PUSH1 0x40 MLOAD DUP1 PUSH1 0x40 ADD PUSH1 0x40 MSTORE DUP1 PUSH1 0x1 DUP2 MSTORE PUSH1 0x20 ADD PUSH32 0x4100000000000000000000000000000000000000000000000000000000000000 DUP2 MSTORE POP SWAP1 POP PUSH2 0x40D JUMP JUMPDEST PUSH0 SLOAD PUSH1 0x3 GT ISZERO DUP1 ISZERO PUSH2 0x33C JUMPI POP PUSH1 0x5 PUSH0 SLOAD GT ISZERO JUMPDEST ISZERO PUSH2 0x37E JUMPI PUSH1 0x40 MLOAD DUP1 PUSH1 0x40 ADD PUSH1 0x40 MSTORE DUP1 PUSH1 0x1 DUP2 MSTORE PUSH1 0x20 ADD PUSH32 0x4200000000000000000000000000000000000000000000000000000000000000 DUP2 MSTORE POP SWAP1 POP PUSH2 0x40D JUMP JUMPDEST PUSH0 SLOAD PUSH1 0x6 GT ISZERO DUP1 ISZERO PUSH2 0x392 JUMPI POP PUSH1 0x8 PUSH0 SLOAD GT ISZERO JUMPDEST ISZERO PUSH2 0x3D4 JUMPI PUSH1 0x40 MLOAD DUP1 PUSH1 0x40 ADD PUSH1 0x40 MSTORE DUP1 PUSH1 0x1 DUP2 MSTORE PUSH1 0x20 ADD PUSH32 0x6300000000000000000000000000000000000000000000000000000000000000 DUP2 MSTORE POP SWAP1 POP PUSH2 0x40D JUMP JUMPDEST PUSH1 0x40 MLOAD DUP1 PUSH1 0x40 ADD PUSH1 0x40 MSTORE DUP1 PUSH1 0x1 DUP2 MSTORE PUSH1 0x20 ADD PUSH32 0x4400000000000000000000000000000000000000000000000000000000000000 DUP2 MSTORE POP SWAP1 POP JUMPDEST SWAP2 SWAP1 POP JUMP JUMPDEST PUSH1 0x60 DUP2 PUSH0 DUP2 SWAP1 SSTORE POP PUSH0 SLOAD PUSH0 GT ISZERO DUP1 ISZERO PUSH2 0x42D JUMPI POP PUSH1 0x2 PUSH0 SLOAD GT ISZERO JUMPDEST ISZERO PUSH2 0x46F JUMPI PUSH1 0x40 MLOAD DUP1 PUSH1 0x40 ADD PUSH1 0x40 MSTORE DUP1 PUSH1 0x1 DUP2 MSTORE PUSH1 0x20 ADD PUSH32 0x4100000000000000000000000000000000000000000000000000000000000000 DUP2 MSTORE POP SWAP1 POP PUSH2 0x5AA JUMP JUMPDEST PUSH0 SLOAD PUSH1 0x3 GT ISZERO DUP1 ISZERO PUSH2 0x483 JUMPI POP PUSH1 0x5 PUSH0 SLOAD GT ISZERO JUMPDEST ISZERO PUSH2 0x4C5 JUMPI PUSH1 0x40 MLOAD DUP1 PUSH1 0x40 ADD PUSH1 0x40 MSTORE DUP1 PUSH1 0x1 DUP2 MSTORE PUSH1 0x20 ADD PUSH32 0x4200000000000000000000000000000000000000000000000000000000000000 DUP2 MSTORE POP SWAP1 POP PUSH2 0x5AA JUMP JUMPDEST PUSH0 SLOAD PUSH1 0x6 GT ISZERO DUP1 ISZERO PUSH2 0x4D9 JUMPI POP PUSH1 0x8 PUSH0 SLOAD GT ISZERO JUMPDEST ISZERO PUSH2 0x51B JUMPI PUSH1 0x40 MLOAD DUP1 PUSH1 0x40 ADD PUSH1 0x40 MSTORE DUP1 PUSH1 0x1 DUP2 MSTORE PUSH1 0x20 ADD PUSH32 0x6300000000000000000000000000000000000000000000000000000000000000 DUP2 MSTORE POP SWAP1 POP PUSH2 0x5AA JUMP JUMPDEST PUSH0 SLOAD PUSH1 0x9 GT ISZERO DUP1 ISZERO PUSH2 0x52F JUMPI POP PUSH1 0xA PUSH0 SLOAD GT ISZERO JUMPDEST ISZERO PUSH2 0x571 JUMPI PUSH1 0x40 MLOAD DUP1 PUSH1 0x40 ADD PUSH1 0x40 MSTORE DUP1 PUSH1 0x1 DUP2 MSTORE PUSH1 0x20 ADD PUSH32 0x4400000000000000000000000000000000000000000000000000000000000000 DUP2 MSTORE POP SWAP1 POP PUSH2 0x5AA JUMP JUMPDEST PUSH1 0x40 MLOAD DUP1 PUSH1 0x40 ADD PUSH1 0x40 MSTORE DUP1 PUSH1 0x1 DUP2 MSTORE PUSH1 0x20 ADD PUSH32 0x4600000000000000000000000000000000000000000000000000000000000000 DUP2 MSTORE POP SWAP1 POP JUMPDEST SWAP2 SWAP1 POP JUMP JUMPDEST PUSH0 DUP1 SLOAD SWAP1 POP SWAP1 JUMP JUMPDEST PUSH0 DUP1 REVERT JUMPDEST PUSH0 DUP2 SWAP1 POP SWAP2 SWAP1 POP JUMP JUMPDEST PUSH2 0x5CD DUP2 PUSH2 0x5BB JUMP JUMPDEST DUP2 EQ PUSH2 0x5D7 JUMPI PUSH0 DUP1 REVERT JUMPDEST POP JUMP JUMPDEST PUSH0 DUP2 CALLDATALOAD SWAP1 POP PUSH2 0x5E8 DUP2 PUSH2 0x5C4 JUMP JUMPDEST SWAP3 SWAP2 POP POP JUMP JUMPDEST PUSH0 PUSH1 0x20 DUP3 DUP5 SUB SLT ISZERO PUSH2 0x603 JUMPI PUSH2 0x602 PUSH2 0x5B7 JUMP JUMPDEST JUMPDEST PUSH0 PUSH2 0x610 DUP5 DUP3 DUP6 ADD PUSH2 0x5DA JUMP JUMPDEST SWAP2 POP POP SWAP3 SWAP2 POP POP JUMP JUMPDEST PUSH0 DUP2 MLOAD SWAP1 POP SWAP2 SWAP1 POP JUMP JUMPDEST PUSH0 DUP3 DUP3 MSTORE PUSH1 0x20 DUP3 ADD SWAP1 POP SWAP3 SWAP2 POP POP JUMP JUMPDEST PUSH0 JUMPDEST DUP4 DUP2 LT ISZERO PUSH2 0x650 JUMPI DUP1 DUP3 ADD MLOAD DUP2 DUP5 ADD MSTORE PUSH1 0x20 DUP2 ADD SWAP1 POP PUSH2 0x635 JUMP JUMPDEST PUSH0 DUP5 DUP5 ADD MSTORE POP POP POP POP JUMP JUMPDEST PUSH0 PUSH1 0x1F NOT PUSH1 0x1F DUP4 ADD AND SWAP1 POP SWAP2 SWAP1 POP JUMP JUMPDEST PUSH0 PUSH2 0x675 DUP3 PUSH2 0x619 JUMP JUMPDEST PUSH2 0x67F DUP2 DUP6 PUSH2 0x623 JUMP JUMPDEST SWAP4 POP PUSH2 0x68F DUP2 DUP6 PUSH1 0x20 DUP7 ADD PUSH2 0x633 JUMP JUMPDEST PUSH2 0x698 DUP2 PUSH2 0x65B JUMP JUMPDEST DUP5 ADD SWAP2 POP POP SWAP3 SWAP2 POP POP JUMP JUMPDEST PUSH0 PUSH1 0x20 DUP3 ADD SWAP1 POP DUP2 DUP2 SUB PUSH0 DUP4 ADD MSTORE PUSH2 0x6BB DUP2 DUP5 PUSH2 0x66B JUMP JUMPDEST SWAP1 POP SWAP3 SWAP2 POP POP JUMP JUMPDEST PUSH2 0x6CC DUP2 PUSH2 0x5BB JUMP JUMPDEST DUP3 MSTORE POP POP JUMP JUMPDEST PUSH0 PUSH1 0x20 DUP3 ADD SWAP1 POP PUSH2 0x6E5 PUSH0 DUP4 ADD DUP5 PUSH2 0x6C3 JUMP JUMPDEST SWAP3 SWAP2 POP POP JUMP JUMPDEST PUSH32 0x5F6E2073686F756C64206E6F7420626520686967686572207468616E2031302E PUSH0 DUP3 ADD MSTORE PUSH32 0x2000000000000000000000000000000000000000000000000000000000000000 PUSH1 0x20 DUP3 ADD MSTORE POP JUMP JUMPDEST PUSH0 PUSH2 0x745 PUSH1 0x21 DUP4 PUSH2 0x623 JUMP JUMPDEST SWAP2 POP PUSH2 0x750 DUP3 PUSH2 0x6EB JUMP JUMPDEST PUSH1 0x40 DUP3 ADD SWAP1 POP SWAP2 SWAP1 POP JUMP JUMPDEST PUSH0 PUSH1 0x20 DUP3 ADD SWAP1 POP DUP2 DUP2 SUB PUSH0 DUP4 ADD MSTORE PUSH2 0x772 DUP2 PUSH2 0x739 JUMP JUMPDEST SWAP1 POP SWAP2 SWAP1 POP JUMP INVALID LOG2 PUSH5 0x6970667358 0x22 SLT KECCAK256 CODESIZE EXP DUP1 SWAP4 INVALID 0xBA SGT 0xAA 0x4F LOG4 0xAE 0xB5 0xB9 0x26 CALLER 0xAB 0x28 0x2F 0xAA 0xCC PREVRANDAO MULMOD DUP15 0xB9 0xCD 0x28 CALLDATASIZE PUSH17 0x7263139464736F6C634300081700330000 "
		},
		"gasEstimates": {
			"creation": {
				"codeDepositCost": "393400",
				"executionCost": "428",
				"totalCost": "393828"
			},
			"external": {
				"getA()": "2476",
				"require_1(uint256)": "infinite",
				"require_2(uint256)": "infinite",
				"require_3(uint256)": "infinite"
			}
		},
		"methodIdentifiers": {
			"getA()": "d46300fd",
			"require_1(uint256)": "cb46861a",
			"require_2(uint256)": "aacbfe0b",
			"require_3(uint256)": "8d9dc5ec"
		}
	},
	"abi": [
		{
			"inputs": [],
			"name": "getA",
			"outputs": [
				{
					"internalType": "uint256",
					"name": "",
					"type": "uint256"
				}
			],
			"stateMutability": "view",
			"type": "function"
		},
		{
			"inputs": [
				{
					"internalType": "uint256",
					"name": "_n",
					"type": "uint256"
				}
			],
			"name": "require_1",
			"outputs": [
				{
					"internalType": "string",
					"name": "",
					"type": "string"
				}
			],
			"stateMutability": "nonpayable",
			"type": "function"
		},
		{
			"inputs": [
				{
					"internalType": "uint256",
					"name": "_n",
					"type": "uint256"
				}
			],
			"name": "require_2",
			"outputs": [
				{
					"internalType": "string",
					"name": "",
					"type": "string"
				}
			],
			"stateMutability": "nonpayable",
			"type": "function"
		},
		{
			"inputs": [
				{
					"internalType": "uint256",
					"name": "_n",
					"type": "uint256"
				}
			],
			"name": "require_3",
			"outputs": [
				{
					"internalType": "string",
					"name": "",
					"type": "string"
				}
			],
			"stateMutability": "nonpayable",
			"type": "function"
		}
	]
}